{
  "_format": "hh-sol-artifact-1",
  "contractName": "Archiary",
  "sourceName": "contracts/Archiary.sol",
  "abi": [
    {
      "inputs": [
        {
          "internalType": "string",
          "name": "_name",
          "type": "string"
        },
        {
          "internalType": "bytes32",
          "name": "_saltHash",
          "type": "bytes32"
        },
        {
          "internalType": "bytes32",
          "name": "_jackpotHash",
          "type": "bytes32"
        },
        {
          "internalType": "uint128",
          "name": "_minWinBalance",
          "type": "uint128"
        },
        {
          "internalType": "uint64",
          "name": "_multiplyToWei",
          "type": "uint64"
        },
        {
          "internalType": "string",
          "name": "_imageHttpFolder",
          "type": "string"
        }
      ],
      "stateMutability": "nonpayable",
      "type": "constructor"
    },
    {
      "inputs": [],
      "name": "Active_false",
      "type": "error"
    },
    {
      "inputs": [],
      "name": "Amount_is_too_low_for_fee",
      "type": "error"
    },
    {
      "inputs": [],
      "name": "Clues_no_or_low_data",
      "type": "error"
    },
    {
      "inputs": [],
      "name": "Cooldown_limit",
      "type": "error"
    },
    {
      "inputs": [
        {
          "internalType": "uint256",
          "name": "numerator",
          "type": "uint256"
        },
        {
          "internalType": "uint256",
          "name": "denominator",
          "type": "uint256"
        }
      ],
      "name": "ERC2981InvalidDefaultRoyalty",
      "type": "error"
    },
    {
      "inputs": [
        {
          "internalType": "address",
          "name": "receiver",
          "type": "address"
        }
      ],
      "name": "ERC2981InvalidDefaultRoyaltyReceiver",
      "type": "error"
    },
    {
      "inputs": [
        {
          "internalType": "uint256",
          "name": "tokenId",
          "type": "uint256"
        },
        {
          "internalType": "uint256",
          "name": "numerator",
          "type": "uint256"
        },
        {
          "internalType": "uint256",
          "name": "denominator",
          "type": "uint256"
        }
      ],
      "name": "ERC2981InvalidTokenRoyalty",
      "type": "error"
    },
    {
      "inputs": [
        {
          "internalType": "uint256",
          "name": "tokenId",
          "type": "uint256"
        },
        {
          "internalType": "address",
          "name": "receiver",
          "type": "address"
        }
      ],
      "name": "ERC2981InvalidTokenRoyaltyReceiver",
      "type": "error"
    },
    {
      "inputs": [],
      "name": "ERC721EnumerableForbiddenBatchMint",
      "type": "error"
    },
    {
      "inputs": [
        {
          "internalType": "address",
          "name": "sender",
          "type": "address"
        },
        {
          "internalType": "uint256",
          "name": "tokenId",
          "type": "uint256"
        },
        {
          "internalType": "address",
          "name": "owner",
          "type": "address"
        }
      ],
      "name": "ERC721IncorrectOwner",
      "type": "error"
    },
    {
      "inputs": [
        {
          "internalType": "address",
          "name": "operator",
          "type": "address"
        },
        {
          "internalType": "uint256",
          "name": "tokenId",
          "type": "uint256"
        }
      ],
      "name": "ERC721InsufficientApproval",
      "type": "error"
    },
    {
      "inputs": [
        {
          "internalType": "address",
          "name": "approver",
          "type": "address"
        }
      ],
      "name": "ERC721InvalidApprover",
      "type": "error"
    },
    {
      "inputs": [
        {
          "internalType": "address",
          "name": "operator",
          "type": "address"
        }
      ],
      "name": "ERC721InvalidOperator",
      "type": "error"
    },
    {
      "inputs": [
        {
          "internalType": "address",
          "name": "owner",
          "type": "address"
        }
      ],
      "name": "ERC721InvalidOwner",
      "type": "error"
    },
    {
      "inputs": [
        {
          "internalType": "address",
          "name": "receiver",
          "type": "address"
        }
      ],
      "name": "ERC721InvalidReceiver",
      "type": "error"
    },
    {
      "inputs": [
        {
          "internalType": "address",
          "name": "sender",
          "type": "address"
        }
      ],
      "name": "ERC721InvalidSender",
      "type": "error"
    },
    {
      "inputs": [
        {
          "internalType": "uint256",
          "name": "tokenId",
          "type": "uint256"
        }
      ],
      "name": "ERC721NonexistentToken",
      "type": "error"
    },
    {
      "inputs": [
        {
          "internalType": "address",
          "name": "owner",
          "type": "address"
        },
        {
          "internalType": "uint256",
          "name": "index",
          "type": "uint256"
        }
      ],
      "name": "ERC721OutOfBoundsIndex",
      "type": "error"
    },
    {
      "inputs": [],
      "name": "NotAllowed",
      "type": "error"
    },
    {
      "inputs": [
        {
          "internalType": "address",
          "name": "owner",
          "type": "address"
        }
      ],
      "name": "OwnableInvalidOwner",
      "type": "error"
    },
    {
      "inputs": [
        {
          "internalType": "address",
          "name": "account",
          "type": "address"
        }
      ],
      "name": "OwnableUnauthorizedAccount",
      "type": "error"
    },
    {
      "inputs": [],
      "name": "Payment_refund_to_sender_failed",
      "type": "error"
    },
    {
      "inputs": [],
      "name": "Payment_to_owner_failed",
      "type": "error"
    },
    {
      "inputs": [],
      "name": "Payment_to_winnerr_failed",
      "type": "error"
    },
    {
      "inputs": [],
      "name": "Winner_no_longer_play",
      "type": "error"
    },
    {
      "anonymous": false,
      "inputs": [
        {
          "indexed": true,
          "internalType": "address",
          "name": "owner",
          "type": "address"
        },
        {
          "indexed": true,
          "internalType": "address",
          "name": "approved",
          "type": "address"
        },
        {
          "indexed": true,
          "internalType": "uint256",
          "name": "tokenId",
          "type": "uint256"
        }
      ],
      "name": "Approval",
      "type": "event"
    },
    {
      "anonymous": false,
      "inputs": [
        {
          "indexed": true,
          "internalType": "address",
          "name": "owner",
          "type": "address"
        },
        {
          "indexed": true,
          "internalType": "address",
          "name": "operator",
          "type": "address"
        },
        {
          "indexed": false,
          "internalType": "bool",
          "name": "approved",
          "type": "bool"
        }
      ],
      "name": "ApprovalForAll",
      "type": "event"
    },
    {
      "anonymous": false,
      "inputs": [
        {
          "indexed": false,
          "internalType": "uint256",
          "name": "_fromTokenId",
          "type": "uint256"
        },
        {
          "indexed": false,
          "internalType": "uint256",
          "name": "_toTokenId",
          "type": "uint256"
        }
      ],
      "name": "BatchMetadataUpdate",
      "type": "event"
    },
    {
      "anonymous": false,
      "inputs": [
        {
          "indexed": false,
          "internalType": "uint256",
          "name": "_tokenId",
          "type": "uint256"
        }
      ],
      "name": "MetadataUpdate",
      "type": "event"
    },
    {
      "anonymous": false,
      "inputs": [
        {
          "indexed": true,
          "internalType": "address",
          "name": "previousOwner",
          "type": "address"
        },
        {
          "indexed": true,
          "internalType": "address",
          "name": "newOwner",
          "type": "address"
        }
      ],
      "name": "OwnershipTransferred",
      "type": "event"
    },
    {
      "anonymous": false,
      "inputs": [
        {
          "indexed": true,
          "internalType": "address",
          "name": "from",
          "type": "address"
        },
        {
          "indexed": true,
          "internalType": "address",
          "name": "to",
          "type": "address"
        },
        {
          "indexed": true,
          "internalType": "uint256",
          "name": "tokenId",
          "type": "uint256"
        }
      ],
      "name": "Transfer",
      "type": "event"
    },
    {
      "inputs": [
        {
          "internalType": "address",
          "name": "to",
          "type": "address"
        },
        {
          "internalType": "uint256",
          "name": "tokenId",
          "type": "uint256"
        }
      ],
      "name": "approve",
      "outputs": [],
      "stateMutability": "nonpayable",
      "type": "function"
    },
    {
      "inputs": [
        {
          "internalType": "address",
          "name": "owner",
          "type": "address"
        }
      ],
      "name": "balanceOf",
      "outputs": [
        {
          "internalType": "uint256",
          "name": "",
          "type": "uint256"
        }
      ],
      "stateMutability": "view",
      "type": "function"
    },
    {
      "inputs": [],
      "name": "getAllPlayers",
      "outputs": [
        {
          "internalType": "address[]",
          "name": "",
          "type": "address[]"
        }
      ],
      "stateMutability": "view",
      "type": "function"
    },
    {
      "inputs": [],
      "name": "getAllUsersData",
      "outputs": [
        {
          "components": [
            {
              "internalType": "uint64",
              "name": "attemptCounter",
              "type": "uint64"
            },
            {
              "internalType": "uint128",
              "name": "attemptSum",
              "type": "uint128"
            },
            {
              "internalType": "uint64",
              "name": "refundCounter",
              "type": "uint64"
            },
            {
              "internalType": "uint128",
              "name": "refundSum",
              "type": "uint128"
            },
            {
              "internalType": "uint32",
              "name": "winCounter",
              "type": "uint32"
            },
            {
              "internalType": "uint128",
              "name": "winSum",
              "type": "uint128"
            },
            {
              "internalType": "uint8",
              "name": "feeCounter",
              "type": "uint8"
            },
            {
              "internalType": "uint128",
              "name": "feeSumPartial",
              "type": "uint128"
            },
            {
              "internalType": "uint128",
              "name": "feeSum",
              "type": "uint128"
            }
          ],
          "internalType": "struct AllUsersData",
          "name": "data",
          "type": "tuple"
        }
      ],
      "stateMutability": "view",
      "type": "function"
    },
    {
      "inputs": [
        {
          "internalType": "uint256",
          "name": "tokenId",
          "type": "uint256"
        }
      ],
      "name": "getApproved",
      "outputs": [
        {
          "internalType": "address",
          "name": "",
          "type": "address"
        }
      ],
      "stateMutability": "view",
      "type": "function"
    },
    {
      "inputs": [],
      "name": "getBalanceInEth",
      "outputs": [
        {
          "internalType": "string",
          "name": "",
          "type": "string"
        }
      ],
      "stateMutability": "view",
      "type": "function"
    },
    {
      "inputs": [],
      "name": "getClueIntegrity",
      "outputs": [
        {
          "internalType": "uint16",
          "name": "cluesOK",
          "type": "uint16"
        },
        {
          "internalType": "uint16",
          "name": "",
          "type": "uint16"
        }
      ],
      "stateMutability": "view",
      "type": "function"
    },
    {
      "inputs": [
        {
          "internalType": "uint256",
          "name": "index",
          "type": "uint256"
        }
      ],
      "name": "getCluePriceInEth",
      "outputs": [
        {
          "internalType": "string",
          "name": "",
          "type": "string"
        }
      ],
      "stateMutability": "view",
      "type": "function"
    },
    {
      "inputs": [
        {
          "internalType": "uint8",
          "name": "varianta",
          "type": "uint8"
        },
        {
          "internalType": "uint128",
          "name": "userIndex",
          "type": "uint128"
        }
      ],
      "name": "getJackpotWinBalanceInEth",
      "outputs": [
        {
          "internalType": "string",
          "name": "",
          "type": "string"
        },
        {
          "internalType": "string",
          "name": "",
          "type": "string"
        },
        {
          "internalType": "string",
          "name": "",
          "type": "string"
        },
        {
          "internalType": "string",
          "name": "",
          "type": "string"
        }
      ],
      "stateMutability": "view",
      "type": "function"
    },
    {
      "inputs": [],
      "name": "getRebusData",
      "outputs": [
        {
          "components": [
            {
              "internalType": "string",
              "name": "name",
              "type": "string"
            },
            {
              "internalType": "uint256",
              "name": "attemptMinimum",
              "type": "uint256"
            },
            {
              "internalType": "bool",
              "name": "active",
              "type": "bool"
            },
            {
              "internalType": "uint8",
              "name": "prcJackpotOfBalance",
              "type": "uint8"
            },
            {
              "internalType": "uint256",
              "name": "multiplyToWei",
              "type": "uint256"
            },
            {
              "internalType": "string",
              "name": "imageHttpFolder",
              "type": "string"
            },
            {
              "internalType": "string",
              "name": "frontHttpAdress",
              "type": "string"
            }
          ],
          "internalType": "struct RebusData",
          "name": "",
          "type": "tuple"
        }
      ],
      "stateMutability": "view",
      "type": "function"
    },
    {
      "inputs": [],
      "name": "getUserDataOfAll",
      "outputs": [
        {
          "components": [
            {
              "internalType": "uint128",
              "name": "attemptSum",
              "type": "uint128"
            },
            {
              "internalType": "uint128",
              "name": "winSum",
              "type": "uint128"
            },
            {
              "internalType": "uint32",
              "name": "attemptCounter",
              "type": "uint32"
            },
            {
              "internalType": "uint32",
              "name": "depositFeeCounter",
              "type": "uint32"
            },
            {
              "internalType": "uint16",
              "name": "returnDepositMinimum",
              "type": "uint16"
            },
            {
              "internalType": "uint16",
              "name": "returnDepositMaximum",
              "type": "uint16"
            },
            {
              "internalType": "uint16",
              "name": "depositFee",
              "type": "uint16"
            },
            {
              "internalType": "uint16",
              "name": "clueLast",
              "type": "uint16"
            },
            {
              "internalType": "uint8",
              "name": "winCounter",
              "type": "uint8"
            },
            {
              "internalType": "uint128",
              "name": "initialized",
              "type": "uint128"
            },
            {
              "internalType": "bool",
              "name": "cluesGeneratedOnly",
              "type": "bool"
            },
            {
              "internalType": "bool",
              "name": "cluesRandom",
              "type": "bool"
            }
          ],
          "internalType": "struct UserData[]",
          "name": "",
          "type": "tuple[]"
        }
      ],
      "stateMutability": "view",
      "type": "function"
    },
    {
      "inputs": [
        {
          "internalType": "address",
          "name": "owner",
          "type": "address"
        },
        {
          "internalType": "address",
          "name": "operator",
          "type": "address"
        }
      ],
      "name": "isApprovedForAll",
      "outputs": [
        {
          "internalType": "bool",
          "name": "",
          "type": "bool"
        }
      ],
      "stateMutability": "view",
      "type": "function"
    },
    {
      "inputs": [
        {
          "internalType": "string",
          "name": "_from",
          "type": "string"
        },
        {
          "internalType": "string",
          "name": "_message",
          "type": "string"
        },
        {
          "internalType": "string",
          "name": "_add",
          "type": "string"
        }
      ],
      "name": "messageToOwner",
      "outputs": [],
      "stateMutability": "payable",
      "type": "function"
    },
    {
      "inputs": [
        {
          "internalType": "address",
          "name": "_to",
          "type": "address"
        },
        {
          "internalType": "string",
          "name": "nftName",
          "type": "string"
        },
        {
          "internalType": "string",
          "name": "nftDesc",
          "type": "string"
        },
        {
          "internalType": "string",
          "name": "nftImage",
          "type": "string"
        }
      ],
      "name": "mintSimpleNFT",
      "outputs": [],
      "stateMutability": "nonpayable",
      "type": "function"
    },
    {
      "inputs": [],
      "name": "name",
      "outputs": [
        {
          "internalType": "string",
          "name": "",
          "type": "string"
        }
      ],
      "stateMutability": "view",
      "type": "function"
    },
    {
      "inputs": [
        {
          "internalType": "bool",
          "name": "_addOnly",
          "type": "bool"
        },
        {
          "internalType": "string",
          "name": "_name",
          "type": "string"
        },
        {
          "internalType": "uint128",
          "name": "_attemptMinimum",
          "type": "uint128"
        },
        {
          "internalType": "uint64",
          "name": "_multiplyToWei",
          "type": "uint64"
        },
        {
          "internalType": "uint8",
          "name": "_prcJackpotOfBalance",
          "type": "uint8"
        },
        {
          "internalType": "string",
          "name": "_imageHttpFolder",
          "type": "string"
        },
        {
          "internalType": "string",
          "name": "_frontHttpAdress",
          "type": "string"
        },
        {
          "internalType": "uint128",
          "name": "_minWinBalance",
          "type": "uint128"
        },
        {
          "internalType": "bytes[]",
          "name": "_encodedItems",
          "type": "bytes[]"
        }
      ],
      "name": "newRebusData",
      "outputs": [],
      "stateMutability": "nonpayable",
      "type": "function"
    },
    {
      "inputs": [],
      "name": "nextTokenId",
      "outputs": [
        {
          "internalType": "uint128",
          "name": "",
          "type": "uint128"
        }
      ],
      "stateMutability": "view",
      "type": "function"
    },
    {
      "inputs": [],
      "name": "owner",
      "outputs": [
        {
          "internalType": "address",
          "name": "",
          "type": "address"
        }
      ],
      "stateMutability": "view",
      "type": "function"
    },
    {
      "inputs": [
        {
          "internalType": "uint256",
          "name": "tokenId",
          "type": "uint256"
        }
      ],
      "name": "ownerOf",
      "outputs": [
        {
          "internalType": "address",
          "name": "",
          "type": "address"
        }
      ],
      "stateMutability": "view",
      "type": "function"
    },
    {
      "inputs": [],
      "name": "renounceOwnership",
      "outputs": [],
      "stateMutability": "nonpayable",
      "type": "function"
    },
    {
      "inputs": [
        {
          "internalType": "uint256",
          "name": "tokenId",
          "type": "uint256"
        },
        {
          "internalType": "uint256",
          "name": "salePrice",
          "type": "uint256"
        }
      ],
      "name": "royaltyInfo",
      "outputs": [
        {
          "internalType": "address",
          "name": "receiver",
          "type": "address"
        },
        {
          "internalType": "uint256",
          "name": "amount",
          "type": "uint256"
        }
      ],
      "stateMutability": "view",
      "type": "function"
    },
    {
      "inputs": [
        {
          "internalType": "address",
          "name": "from",
          "type": "address"
        },
        {
          "internalType": "address",
          "name": "to",
          "type": "address"
        },
        {
          "internalType": "uint256",
          "name": "tokenId",
          "type": "uint256"
        }
      ],
      "name": "safeTransferFrom",
      "outputs": [],
      "stateMutability": "nonpayable",
      "type": "function"
    },
    {
      "inputs": [
        {
          "internalType": "address",
          "name": "from",
          "type": "address"
        },
        {
          "internalType": "address",
          "name": "to",
          "type": "address"
        },
        {
          "internalType": "uint256",
          "name": "tokenId",
          "type": "uint256"
        },
        {
          "internalType": "bytes",
          "name": "data",
          "type": "bytes"
        }
      ],
      "name": "safeTransferFrom",
      "outputs": [],
      "stateMutability": "nonpayable",
      "type": "function"
    },
    {
      "inputs": [
        {
          "internalType": "string",
          "name": "_from",
          "type": "string"
        },
        {
          "internalType": "string",
          "name": "_name",
          "type": "string"
        },
        {
          "internalType": "uint256",
          "name": "_record",
          "type": "uint256"
        }
      ],
      "name": "sendGet",
      "outputs": [],
      "stateMutability": "payable",
      "type": "function"
    },
    {
      "inputs": [
        {
          "internalType": "uint256",
          "name": "_record",
          "type": "uint256"
        }
      ],
      "name": "sendGetPrice",
      "outputs": [
        {
          "internalType": "uint64",
          "name": "",
          "type": "uint64"
        }
      ],
      "stateMutability": "view",
      "type": "function"
    },
    {
      "inputs": [
        {
          "internalType": "bool",
          "name": "_state",
          "type": "bool"
        }
      ],
      "name": "setActive",
      "outputs": [],
      "stateMutability": "nonpayable",
      "type": "function"
    },
    {
      "inputs": [
        {
          "internalType": "address",
          "name": "operator",
          "type": "address"
        },
        {
          "internalType": "bool",
          "name": "approved",
          "type": "bool"
        }
      ],
      "name": "setApprovalForAll",
      "outputs": [],
      "stateMutability": "nonpayable",
      "type": "function"
    },
    {
      "inputs": [
        {
          "internalType": "address",
          "name": "newRecipient",
          "type": "address"
        }
      ],
      "name": "setRoyaltyRecipient",
      "outputs": [],
      "stateMutability": "nonpayable",
      "type": "function"
    },
    {
      "inputs": [
        {
          "internalType": "bytes4",
          "name": "interfaceId",
          "type": "bytes4"
        }
      ],
      "name": "supportsInterface",
      "outputs": [
        {
          "internalType": "bool",
          "name": "",
          "type": "bool"
        }
      ],
      "stateMutability": "view",
      "type": "function"
    },
    {
      "inputs": [],
      "name": "symbol",
      "outputs": [
        {
          "internalType": "string",
          "name": "",
          "type": "string"
        }
      ],
      "stateMutability": "view",
      "type": "function"
    },
    {
      "inputs": [
        {
          "internalType": "uint256",
          "name": "index",
          "type": "uint256"
        }
      ],
      "name": "tokenByIndex",
      "outputs": [
        {
          "internalType": "uint256",
          "name": "",
          "type": "uint256"
        }
      ],
      "stateMutability": "view",
      "type": "function"
    },
    {
      "inputs": [
        {
          "internalType": "address",
          "name": "owner",
          "type": "address"
        },
        {
          "internalType": "uint256",
          "name": "index",
          "type": "uint256"
        }
      ],
      "name": "tokenOfOwnerByIndex",
      "outputs": [
        {
          "internalType": "uint256",
          "name": "",
          "type": "uint256"
        }
      ],
      "stateMutability": "view",
      "type": "function"
    },
    {
      "inputs": [
        {
          "internalType": "uint256",
          "name": "tokenId",
          "type": "uint256"
        }
      ],
      "name": "tokenURI",
      "outputs": [
        {
          "internalType": "string",
          "name": "",
          "type": "string"
        }
      ],
      "stateMutability": "view",
      "type": "function"
    },
    {
      "inputs": [],
      "name": "totalSupply",
      "outputs": [
        {
          "internalType": "uint256",
          "name": "",
          "type": "uint256"
        }
      ],
      "stateMutability": "view",
      "type": "function"
    },
    {
      "inputs": [
        {
          "internalType": "address",
          "name": "from",
          "type": "address"
        },
        {
          "internalType": "address",
          "name": "to",
          "type": "address"
        },
        {
          "internalType": "uint256",
          "name": "tokenId",
          "type": "uint256"
        }
      ],
      "name": "transferFrom",
      "outputs": [],
      "stateMutability": "nonpayable",
      "type": "function"
    },
    {
      "inputs": [
        {
          "internalType": "address",
          "name": "newOwner",
          "type": "address"
        }
      ],
      "name": "transferOwnership",
      "outputs": [],
      "stateMutability": "nonpayable",
      "type": "function"
    },
    {
      "inputs": [],
      "name": "withdrawAll",
      "outputs": [],
      "stateMutability": "nonpayable",
      "type": "function"
    },
    {
      "inputs": [],
      "name": "withdrawFees",
      "outputs": [],
      "stateMutability": "nonpayable",
      "type": "function"
    },
    {
      "stateMutability": "payable",
      "type": "receive"
    }
  ],
  "bytecode": "0x60806040523462000af65762004dbe803803806200001d8162000b1b565b928339810160c08282031262000af65781516001600160401b03811162000af657816200004c91840162000b41565b6020830151604084015160608501519491939092916001600160801b038616860362000af65760808101516001600160401b038116929083900362000af65760a08201516001600160401b03811162000af657620000ab920162000b41565b90620000b662000afb565b600b81526a105c98da1a585c9e53919560aa1b6020820152620000d862000afb565b6005815264524542555360d81b6020820152815190916001600160401b038211620004f15781906200010c60005462000bb3565b601f811162000ab5575b50602090601f831160011462000a3d5760009262000a31575b50508160011b916000199060031b1c1916176000555b8051906001600160401b038211620004f15781906200016660015462000bb3565b601f8111620009ef575b50602090601f8311600114620009755760009262000969575b50508160011b916000199060031b1c1916176001555b33156200095057600d8054336001600160a01b0319821681179092556001600160a01b03167f8be0079c531659141344cd1fd0a4f28419497f9722a3daafe3b4186f6b6457e0600080a3602080546001600160801b03191690556040519260e084016001600160401b03811185821017620004f1576040528352600160208401526001604084015260636060840152608083015260a08201526200024262000afb565b601b81527f68747470733a2f2f61726368696172792e6769746875622e696f2f0000000000602082015260c082015280518051906001600160401b038211620004f157819062000294600f5462000bb3565b601f81116200090e575b50602090601f8311600114620008905760009262000884575b50508160011b916000199060031b1c191617600f555b60208101516010556040810151151560115460ff61ff00606085015160081b1692169061ffff19161717601155608081015160125560a081015180519060018060401b038211620004f1576200032560135462000bb3565b601f811162000842575b50602090601f8311600114620007c45760c093929160009183620007b8575b50508160011b916000199060031b1c1916176013555b015180519093906001600160401b038111620004f1576200038760145462000bb3565b601f811162000765575b50602094601f8211600114620006f857948192939495600092620006ec575b50508160011b916000199060031b1c1916176014555b60405160208101939092906001600160401b03851184861017620004f15760408581526000855251608081016001600160401b03811182821017620004f1576040908152828252602082018490526001600160801b0394909416938101849052606001849052601555601655601780546001600160801b03191690911790555190680100000000000000008211620004f1576018548260185580831062000650575b50601860009081527fb13d2d76d1f4b7be834882e410b3e3a8afaf69f83600ae24db354391d2378d2e92915b8282106200052057600d546001600160a01b031680156200050757604080519081016001600160401b03811182821017620004f1576101f4916020916040528381520152607d60a21b17600b55604051614134908162000c0a8239f35b634e487b7160e01b600052604160045260246000fd5b604051635b6cc80560e11b815260006004820152602490fd5b80518051906001600160401b038211620004f15762000540865462000bb3565b601f81116200060e575b50602090601f83116001146200059b5792826001949360209386956000926200058f575b5050600019600383901b1c191690841b1787555b0194019101909262000494565b0151905038806200056e565b90601f198316918760005260206000209260005b818110620005f55750936020936001969387969383889510620005db575b505050811b01875562000582565b015160001960f88460031b161c19169055388080620005cd565b92936020600181928786015181550195019301620005af565b6200063e90876000526020600020601f850160051c8101916020861062000645575b601f0160051c019062000bf0565b386200054a565b909150819062000630565b60186000527fb13d2d76d1f4b7be834882e410b3e3a8afaf69f83600ae24db354391d2378d2e9081019083015b8181106200068c575062000468565b806200069b6001925462000bb3565b80620006aa575b50016200067d565b601f81118314620006c25750600081555b38620006a2565b600090828252620006e2601f60208420920160051c820185830162000bf0565b81835555620006bb565b015190503880620003b0565b601f19821695601460005260206000209160005b8881106200074c5750836001959697981062000732575b505050811b01601455620003c6565b015160001960f88460031b161c1916905538808062000723565b919260206001819286850151815501940192016200070c565b6014600052620007b1907fce6d7b5282bd9a3661ae061feed1dbda4e52ab073b1f9285be6e155d9c38d4ec601f840160051c810191602085106200064557601f0160051c019062000bf0565b3862000391565b0151905038806200034e565b6013600090815260008051602062004d5e833981519152929190601f198516905b81811062000829575091600193918560c0979694106200080f575b505050811b0160135562000364565b015160001960f88460031b161c1916905538808062000800565b92936020600181928786015181550195019301620007e5565b60136000526200087d9060008051602062004d5e833981519152601f850160051c810191602086106200064557601f0160051c019062000bf0565b386200032f565b015190503880620002b7565b600f6000908152935060008051602062004d9e83398151915291905b601f1984168510620008f2576001945083601f19811610620008d8575b505050811b01600f55620002cd565b015160001960f88460031b161c19169055388080620008c9565b81810151835560209485019460019093019290910190620008ac565b600f600052620009499060008051602062004d9e833981519152601f850160051c810191602086106200064557601f0160051c019062000bf0565b386200029e565b604051631e4fbdf760e01b815260006004820152602490fd5b01519050388062000189565b6001600090815260008051602062004d7e8339815191529350601f198516905b818110620009d65750908460019594939210620009bc575b505050811b016001556200019f565b015160001960f88460031b161c19169055388080620009ad565b9293602060018192878601518155019501930162000995565b600160005262000a2a9060008051602062004d7e833981519152601f850160051c810191602086106200064557601f0160051c019062000bf0565b3862000170565b0151905038806200012f565b600080805260008051602062004d3e8339815191529350601f198516905b81811062000a9c575090846001959493921062000a82575b505050811b0160005562000145565b015160001960f88460031b161c1916905538808062000a73565b9293602060018192878601518155019501930162000a5b565b6000805262000aef9060008051602062004d3e833981519152601f850160051c810191602086106200064557601f0160051c019062000bf0565b3862000116565b600080fd5b60408051919082016001600160401b03811183821017620004f157604052565b6040519190601f01601f191682016001600160401b03811183821017620004f157604052565b919080601f8401121562000af65782516001600160401b038111620004f15760209062000b77601f8201601f1916830162000b1b565b9281845282828701011162000af65760005b81811062000b9f57508260009394955001015290565b858101830151848201840152820162000b89565b90600182811c9216801562000be5575b602083101462000bcf57565b634e487b7160e01b600052602260045260246000fd5b91607f169162000bc3565b81811062000bfc575050565b6000815560010162000bf056fe608080604052600436101561007a575b50361561001b57600080fd5b60ff60115416158061006b575b50336000908152601960205260409020600201546001600160801b03161561005d5761005334612fe7565b61005b6138d8565b005b610066346130dd565b610053565b6100755738610028565b600080fd5b60003560e01c90816301ffc9a7146126a75750806306fdde0314612604578063081812fc146125c6578063095ea7b3146124df57806317554f171461245457806318160ddd146124365780631a3357611461216157806322931cd914611fe057806323b872dd14611fc95780632a55205a14611f4f5780632f745c5914611ed65780633f3309ca14611eb157806341e42f3014611e4557806342842e0e14611e1d578063476343ee14611d395780634f6ccce714611ce35780635f650a6114611a565780636352211e14611a2657806370a08231146119fb578063715018a6146119b057806375794a3c14611989578063837a258f146117b1578063853828b6146117615780638c5136af1461146b5780638da5cb5b1461144257806395d89b411461137d578063a22cb465146112d8578063a688d105146112a2578063acec338a1461126c578063b88d4fde1461121e578063ba3544a214611196578063c87b56dd14611128578063dfc38294146110b4578063dff5165d1461057f578063e2ba3c5c146103a8578063e985e9c514610352578063efa1c4821461029f5763f2fde38b14610229573861000f565b34610075576020366003190112610075576102426127a8565b61024a612973565b6001600160a01b0390811690811561028657600d80546001600160a01b0319811684179091551660008051602061407f833981519152600080a3005b604051631e4fbdf760e01b815260006004820152602490fd5b34610075576000366003190112610075576102b8612973565b60405180600e5480835260208093018091600e600052846000209060005b868282106103355786866102ec828803836128c8565b604051928392818401908285525180915260408401929160005b82811061031557505050500390f35b83516001600160a01b031685528695509381019392810192600101610306565b83546001600160a01b0316855290930192600192830192016102d6565b346100755760403660031901126100755761036b6127a8565b6103736127be565b9060018060a01b03809116600052600560205260406000209116600052602052602060ff604060002054166040519015158152f35b6060366003190112610075576001600160401b03600435818111610075576103d4903690600401612906565b602435828111610075576103ec903690600401612906565b9160443590811161007557610405903690600401612906565b913360005260206019815260018060801b039182600260406000200154161560001461057157610434346130dd565b60105434106105645761053f61053861005b9684549386851697876104588a6131da565b166001600160801b0319968716178755600d5461047f908a906001600160a01b03166133bf565b6104fe602361048d8b61371c565b9361049734613e2b565b9060405194826104b18d8895519281849288019101612760565b8301600160fd1b8d8201526104d08d8351938491602185019101612760565b016101d160f51b60218201526104ef8c83519384918785019101612760565b010360038101845201826128c8565b60405191610533600b846105138b82016131f2565b6a6d6573736167652e706e6760a81b8152036014198101865201846128c8565b613b6f565b80956135d9565b8154908382169361054f856131da565b16911617905561055f81336133bf565b6135d9565b505050505061005b6138d8565b61057a34612fe7565b610434565b34610075576101203660031901126100755761059961294d565b6024356001600160401b038111610075576105b8903690600401612906565b60443591906001600160801b03908184168403610075576064356001600160401b03811681036100755760ff60843516608435036100755760a4356001600160401b0381116100755761060f903690600401612906565b60c4356001600160401b0381116100755761062e903690600401612906565b9160e435938585168503610075576001600160401b03610104351161007557366023610104350112156100755761066b610104356004013561295c565b97610679604051998a6128c8565b6101043560040135895260208901366024610104356004013560051b610104350101116100755760246101043501905b6024610104356004013560051b61010435010182106110835750506106cc612973565b81516001600160401b038111610cb75787926106e9600f546129d8565b601f8111611034575b50602090601f8311600114610fc3576000919083610fb8575b50508160011b916000199060031b1c191617600f555b166010556001600160401b039081166012556011805461ff00191660843560081b61ff0016179055815191908211610cb75781906107606013546129d8565b601f8111610f7b575b50602090601f8311600114610f0357600092610ef8575b50508160011b916000199060031b1c1916176013555b8051906001600160401b038211610cb75781906107b46014546129d8565b601f8111610eb0575b50602090601f8311600114610e3c57600092610e31575b50508160011b916000199060031b1c1916176014555b1660018060801b0319601754161760175515610d5d575b60005b815181101561005b576108178183612f5a565b516018908154600160401b811015610cb757600181018084558110156109ee57610849926000526020600020016139c7565b6108538183612f5a565b516040519161086183612892565b600483526020368185013760005b60048110610d315750815160031981019081116108d85761088f906136ea565b9360045b83518110156108ee576001600160f81b03196108af8286613a8e565b511690806003198101116108d85760019160001a6108d1600319830189613a8e565b5301610893565b634e487b7160e01b600052601160045260246000fd5b5093909291506108fe81516136ea565b9360005b825181101561094e57610949906001600160f81b0319806109238387613a8e565b5116906109336003841688613a8e565b51161860001a6109438289613a8e565b536139b8565b610902565b50604051909490925090506001600160401b0360a0830190811190831117610cb75760a0820160405260a036833760009360005b8251811080610d24575b15610a0457601f60fa1b6001600160f81b03196109a98386613a8e565b5116146109bf575b6109ba906139b8565b610982565b94600560ff821610156109ee5785611fe08260051b1685015260ff808216146108d85760ff16600101946109b1565b634e487b7160e01b600052603260045260246000fd5b508251945091610a13856136ea565b9460005b818110610cf95750506000805b8651821015610a72576001600160401b03908116600a029081169081036108d857610a6a60019160ff610a63610a5a868c613a8e565b5160f81c613afb565b1690612fb4565b910190610a24565b929394919550508451600181018091116108d857610a97602087019182519086613a9f565b9051600181018091116108d857610abd610ab8604089019283519088613a9f565b613b0e565b905191600183018093116108d857610adf610ab860608a019485519089613a9f565b92516001810181116108d8576080890151610afd9160010188613a9f565b956000986000996000998951156109ee5760208a01516001600160f81b031916602d60f81b14610ced575b9a905b8951821015610b7457610b68610b6e9160ff610b5e610b58610b4e8f8890613a8e565b5160f81c93613873565b92613afb565b1660070b90613888565b916139b8565b90610b2b565b94969850509091939597610ccd575b60800151600181018091116108d85781610ab891610ba2935191613a9f565b604051969093906001600160401b0360c0890190811190891117610cb75760c0880160405260018060401b0316875260208701928352604087019461ffff80921686528160608901911681526080880191600793840b83528060a08a0196168652601e8054600160401b811015610cb757610c2291600182019055612f6e565b929092610ca157816002610c7394610c5d610c7c99610c9c9e60018060401b0390511660018060401b031984541617835551600183016139c7565b0198511661ffff19895416178855511686613859565b51900b836138ad565b51815461ffff60601b191660609190911b61ffff60601b161790556139b8565b610804565b634e487b7160e01b600052600060045260246000fd5b634e487b7160e01b600052604160045260246000fd5b91600781900b60016001603f1b0319146108d85760070b60000391610b83565b60019b508b9a50610b28565b610d1f906001600160f81b0319610d108287613a8e565b511660001a610943828a613a8e565b610a17565b50600560ff87161061098c565b6001906001600160f81b0319610d478286613a8e565b511660001a610d568287613a8e565b530161086f565b601e546000601e5580610dca575b50601854600060185580610d80575b50610801565b60186000527fb13d2d76d1f4b7be834882e410b3e3a8afaf69f83600ae24db354391d2378d2e908101905b818110610db85750610d7a565b80610dc460019261396f565b01610dab565b60039080820290828204036108d857601e6000527f50bb669a95c7b50b7e8a6f09454034b2b14cf2b85c730dca9a539ca82cb6e350908101905b818110610e12575050610d6b565b806000849255610e246001820161396f565b6000600282015501610e04565b0151905086806107d4565b601460009081526000805160206140bf8339815191529350601f198516905b818110610e985750908460019594939210610e7f575b505050811b016014556107ea565b015160001960f88460031b161c19169055868080610e71565b92936020600181928786015181550195019301610e5b565b6014600052610ee8906000805160206140bf833981519152601f850160051c81019160208610610eee575b601f0160051c0190613588565b876107bd565b9091508190610edb565b015190508780610780565b60136000908152935060008051602061405f83398151915291905b601f1984168510610f60576001945083601f19811610610f47575b505050811b01601355610796565b015160001960f88460031b161c19169055878080610f39565b81810151835560209485019460019093019290910190610f1e565b6013600052610fb29060008051602061405f833981519152601f850160051c81019160208610610eee57601f0160051c0190613588565b88610769565b015190508b8061070b565b93929190600f60005260206000209060005b601f19841681106110195750600193949583601f19811610611000575b505050811b01600f55610721565b015160001960f88460031b161c191690558b8080610ff2565b8682015183558b955060019092019160209182019101610fd5565b600f60005261107d907f8d1108e10bcb7c27dddfc02ed9d693a074039d026cf4ea4240b40f7d581ac802601f850160051c81019160208610610eee57601f0160051c0190613588565b8b6106f2565b6001600160401b0382351161007557602080916110a93660248635610104350101612906565b8152019101906106a9565b34610075576080366003190112610075576110cd6127a8565b6001600160401b0390602435828111610075576110ee903690600401612906565b60443583811161007557611106903690600401612906565b906064359384116100755761112261005b943690600401612906565b92613266565b346100755760203660031901126100755760043561114581612e8d565b50600052600a60205261119261116861116f604060002060405192838092612a12565b03826128c8565b600060405161117d81612877565b52604051918291602083526020830190612783565b0390f35b3461007557600036600319011261007557600080601e54905b61ffff80841690838210156112145760026111c986612f6e565b50015460601c16036111ec575061ffff8083169081146108d857600101916111af565b9091505b61ffff91821660001901918083116108d85760409281845193168352166020820152f35b50509091506111f0565b34610075576080366003190112610075576112376127a8565b61123f6127be565b606435916001600160401b0383116100755761126261005b933690600401612906565b9160443591612d46565b346100755760203660031901126100755761128561294d565b61128d612973565b60ff8019601154169115151617601155600080f35b3461007557602036600319011261007557602060026112c2600435612f6e565b50015460405190821c6001600160401b03168152f35b34610075576040366003190112610075576112f16127a8565b60243590811515809203610075576001600160a01b031690811561136457336000526005602052604060002082600052602052604060002060ff1981541660ff83161790556040519081527f17307eab39ab6107e8899845ad3d59bd9653f200f220920489ca2b5937696c3160203392a3005b604051630b61174360e31b815260048101839052602490fd5b3461007557600036600319011261007557604051600090600180546113a1816129d8565b8084529082811690811561141a57506001146113dc575b611192836113c8818703826128c8565b604051918291602083526020830190612783565b92508060005260209283600020916000925b828410611407575050508101909101906113c8816113b8565b80548585018701529285019281016113ee565b61119295506113c893506020915091849260ff191682840152151560051b82010193506113b8565b3461007557600036600319011261007557600d546040516001600160a01b039091168152602090f35b6060366003190112610075576001600160401b0360043581811161007557611497903690600401612906565b602435828111610075576114af903690600401612906565b9160443591601e549060001982019182116108d85761ffff8092168411156114d357005b336000526020946019865260018060801b0390600294828660406000200154161560001461175357611504346130dd565b808661150f89612f6e565b500154891c163410611743576116ba9361160c92898960019482546116128982168a61153a826131da565b16898060801b031980941617865561155b818a8060a01b03600d54166133bf565b6115c0604461156934613e2b565b6040519a816115818d935180928d8087019101612760565b8201600160fd1b8b82015261159f825180938d602185019101612760565b016201d11960ed1b602182015288602482015203602481018b5201896128c8565b61160c604051986115f460078b6115d88b82016131f2565b666765742e706e6760c81b81520360181981018d52018b6128c8565b896040519161160283612877565b600083528a613b6f565b906135d9565b835490898216996116228b6131da565b16911617835561163288336133bf565b8061163c83612f6e565b50541615611732576116849261166260259261165a61169495612f6e565b50541661371c565b6040519482642830b9b99d60d91b879485015282519283918686019101612760565b81010360058101845201826128c8565b905b6105336116a28b612f6e565b506116b36040518097819301612a12565b03856128c8565b816116c484612f6e565b500190600181835460101c16019081116108d85761005b946116ec6117259261172b94613859565b606461171b856116fb88612f6e565b500154831c60070b928661170e89612f6e565b500154901c60070b613873565b60070b0590613888565b92612f6e565b50016138ad565b50505061173d6130c0565b90611696565b505050505050505061005b6138d8565b61175c34612fe7565b611504565b346100755760003660031901126100755761177a612973565b600080808060018060a01b03600d541647908282156117a8575bf11561179c57005b6040513d6000823e3d90fd5b506108fc611794565b346100755760403660031901126100755760ff60043581811680820361007557602435906001600160801b038083168303610075576117ee612973565b81156002811561197057506002935b6005841092838061195a575b15610075576103e88161186461184161184f8a6118286118469c612f6e565b50546001600160401b039c8d9491851692859290612fa2565b612f6e565b50541690612fb4565b169761185e601254809a612f2e565b95612f41565b16029081169081036108d85761187e611883918993612fcd565b613e2b565b9560019215611942575050506001945b8161192b575b50156100755761191d6118de6118d861187e84866118d28a826118466118416111929c6119019f6118c990612f6e565b50541693612fa2565b16612f2e565b92613e2b565b61190f6118ec601054613e2b565b93604051978897608089526080890190612783565b908782036020890152612783565b908582036040870152612783565b908382036060850152612783565b905061193685612fa2565b601e5491161085611899565b61194b90612f8d565b16018581116108d85794611893565b5061196486612fa2565b88601e54911610611809565b8661197a87612f8d565b16018681116108d857936117fd565b3461007557600036600319011261007557602080546040516001600160801b039091168152f35b34610075576000366003190112610075576119c9612973565b600d80546001600160a01b031981169091556000906001600160a01b031660008051602061407f8339815191528280a3005b34610075576020366003190112610075576020611a1e611a196127a8565b61299f565b604051908152f35b34610075576020366003190112610075576020611a44600435612e8d565b6040516001600160a01b039091168152f35b3461007557600036600319011261007557611a6f612973565b600e54611a7b8161295c565b90611a8960405192836128c8565b808252601f19611a988261295c565b0160005b818110611c7457505060005b818110611b8c5760408051602080825285518183018190528187019383019160005b828110611ad75784840385f35b909192826101806001928851848060801b038082511683528085830151168584015263ffffffff80604084015116604085015260609081840151169084015261ffff60808181850151169085015260a08181850151169085015260c08181850151169085015260e08301511660e084015261010060ff81840151169084015261012090818301511690830152610140808201511515908301526101608091015115159082015201960191019492919094611aca565b611b9581612ee3565b60018060a01b0391549060031b1c1660005260209060198252604060002060405190611bc08261285b565b805460018060801b03948582168452608091821c8185015260019586840154809263ffffffff8083166040890152826060921c168188015261ffff918291828260401c16878a0152828260501c1660a08a01521c1660c08701528260701c1660e0860152600260ff94858094861c16610100880152015492839182166101208701521c16151561014084015260881c161515610160820152611c628286612f5a565b52611c6d8185612f5a565b5001611aa8565b602090604051611c838161285b565b6000815282600081830152600060408301526000606083015260006080830152600060a0830152600060c0830152600060e08301526000610100830152600061012083015260006101408301526000610160830152828701015201611a9c565b3461007557602036600319011261007557600435600854811015611d1a57611d0c602091612ec8565b90546040519160031b1c8152f35b6044906040519063295f44f760e21b8252600060048301526024820152fd5b3461007557600036600319011261007557611d52612973565b601d546001600160801b038116908115611de25760008080848194611d828260018060801b03199260801c612f41565b60801b16601d55600d546001600160a01b03165af1611d9f612efe565b5015611da757005b60405162461bcd60e51b8152602060048201526013602482015272119959481d1c985b9cd9995c8819985a5b1959606a1b6044820152606490fd5b60405162461bcd60e51b81526020600482015260136024820152724e6f206665657320746f20776974686472617760681b6044820152606490fd5b346100755761005b611e2e366127d4565b9060405192611e3c84612877565b60008452612d46565b3461007557602036600319011261007557611e5e6127a8565b611e66612973565b6001600160a01b03168015611e9857604080519081016001600160401b038111911117610cb757607d60a21b17600b55005b604051635b6cc80560e11b815260006004820152602490fd5b3461007557600036600319011261007557611eca612973565b6111926113c847613e2b565b3461007557604036600319011261007557611eef6127a8565b60243590611efc8161299f565b821015611f2f5760018060a01b031660005260066020526040600020906000526020526020604060002054604051908152f35b611f4b60405192839263295f44f760e21b845260048401612809565b0390fd5b34610075576040366003190112610075576004356000908152600c60205260409020546001600160a01b038082169160a01c908215611fb4575b5061271090611fa3906001600160601b0316602435612f2e565b049061119260405192839283612809565b600b54908116925060a01c9050611fa3611f89565b346100755761005b611fda366127d4565b91612aa8565b346100755760003660031901126100755760006101006040516120028161283f565b8281528260208201528260408201528260608201528260808201528260a08201528260c08201528260e08201520152612039612973565b6101206040516120488161283f565b601a549060018060401b038216815260018060801b038260401c1660208201528160c01c604082015263ffffffff601b5460018060801b038116606084015260801c16608082015260ff601c5460018060801b03811660a084015260801c1660c0820152601d5460018060801b03811660e083015260801c6101008201526040519160018060401b0316825260018060801b03602082015116602083015260018060401b03604082015116604083015260018060801b03606082015116606083015263ffffffff608082015116608083015260018060801b0360a08201511660a083015260ff60c08201511660c083015260018060801b0360e08201511660e083015261010060018060801b0391015116610100820152f35b346100755760003660031901126100755760405161217e81612824565b60608082528060c060209360008582015260006040820152600083820152600060808201528260a082015201526121b3612973565b604051906121c082612824565b604051600f549290848160006121d5876129d8565b80835260019780891690811561241857506001146123d7575b506121fb925003826128c8565b815260105491848201928352601154604083019160ff82161515835260ff8185019260081c16825260125492608085019384526040519488866000601354612242816129d8565b808452908c81169081156123b95750600114612377575b50612266925003876128c8565b60a081019586526040519760009060145490612281826129d8565b808c5291818116908115612359575060011461231f575b5050938896936111929896936122de60ff946122bc60e09e9d61230e9a038c6128c8565b60c081019a8b526040519d8d8f9e928f938452519201526101008d0190612783565b975160408c0152511515908a0152511660808801525160a08701525191601f1992838783030160c0880152612783565b9151908483030160e0850152612783565b915060146000528a600020916000925b828410612346575050508801890183611192612298565b8054848d018e0152928c0192810161232f565b60ff19168d8d01525050151560051b89018a01905083611192612298565b9050601360005282600020908b6000925b8284106123a15750505091612266928201018b92612259565b859294838583549201015201910190918b8a93612388565b60ff191684860152508c9390151560051b8301019050612266612259565b9050600f6000528260002090876000925b82841061240157505050916121fb9282010187926121ee565b8054878501870152869450928501928991016123e8565b60ff19168486015250889390151560051b83010190506121fb6121ee565b34610075576000366003190112610075576020600854604051908152f35b346100755760203660031901126100755761246d612973565b601054600261247d600435612f6e565b50015460201c60070b9060125480830292600160ff1b9182811460008312166108d85781850514901517156108d857600083126124c5575061187e611192926113c892612fcd565b82146108d85761187e6113c8916111929360000390612fda565b34610075576040366003190112610075576124f86127a8565b60243561250481612e8d565b331515806125b3575b80612586575b61256e576001600160a01b039283169282918491167f8c5be1e5ebec7d5bd14f71427d1e84f3dd0314c0f7b2291e5b200ac8c7c3b925600080a4600090815260046020526040902080546001600160a01b0319169091179055005b60405163a9fbf51f60e01b8152336004820152602490fd5b5060018060a01b038116600052600560205260406000203360005260205260ff6040600020541615612513565b506001600160a01b03811633141561250d565b34610075576020366003190112610075576004356125e381612e8d565b506000526004602052602060018060a01b0360406000205416604051908152f35b3461007557600036600319011261007557604051600090600054612627816129d8565b80835260019180831690811561141a575060011461264f57611192836113c8818703826128c8565b600080805260209450917f290decd9548b62a8d60345a988386fc84ba6bc95484008f6362f93160ef3e5635b828410612694575050508101909101906113c8816113b8565b805485850187015292850192810161267b565b34610075576020366003190112610075576004359063ffffffff60e01b82168092036100755760209163152a902d60e11b81149081156126e9575b5015158152f35b632483248360e11b811491508115612703575b50836126e2565b63780e9d6360e01b81149150811561271d575b50836126fc565b6380ac58cd60e01b81149150811561274f575b811561273e575b5083612716565b6301ffc9a760e01b14905083612737565b635b5e139f60e01b81149150612730565b60005b8381106127735750506000910152565b8181015183820152602001612763565b9060209161279c81518092818552858086019101612760565b601f01601f1916010190565b600435906001600160a01b038216820361007557565b602435906001600160a01b038216820361007557565b6060906003190112610075576001600160a01b0390600435828116810361007557916024359081168103610075579060443590565b6001600160a01b039091168152602081019190915260400190565b60e081019081106001600160401b03821117610cb757604052565b61012081019081106001600160401b03821117610cb757604052565b61018081019081106001600160401b03821117610cb757604052565b602081019081106001600160401b03821117610cb757604052565b604081019081106001600160401b03821117610cb757604052565b606081019081106001600160401b03821117610cb757604052565b601f909101601f19168101906001600160401b03821190821017610cb757604052565b6001600160401b038111610cb757601f01601f191660200190565b81601f820112156100755780359061291d826128eb565b9261292b60405194856128c8565b8284526020838301011161007557816000926020809301838601378301015290565b60043590811515820361007557565b6001600160401b038111610cb75760051b60200190565b600d546001600160a01b0316330361298757565b60405163118cdaa760e01b8152336004820152602490fd5b6001600160a01b031680156129bf57600052600360205260406000205490565b6040516322718ad960e21b815260006004820152602490fd5b90600182811c92168015612a08575b60208310146129f257565b634e487b7160e01b600052602260045260246000fd5b91607f16916129e7565b9060009291805491612a23836129d8565b918282526001938481169081600014612a855750600114612a45575b50505050565b90919394506000526020928360002092846000945b838610612a71575050505001019038808080612a3f565b805485870183015294019385908201612a5a565b9294505050602093945060ff191683830152151560051b01019038808080612a3f565b6001600160a01b0382811693918415612d2d57600094838652602095600287526040968488832054169633151580612ca1575b5087158015612c81575b84845260038352898420805460010190558784526002835289842080546001600160a01b0319168617905587858a60008051602061409f8339815191528780a415612c155760085487845260098352898420819055600160401b811015612c015787612b5a826001612b739401600855612ec8565b90919082549060031b91821b91600019901b1916179055565b838803612baf575b505050501692838303612b8e5750505050565b6064945051926364283d7b60e01b8452600484015260248301526044820152fd5b612bb89061299f565b600019810193908411612bed5782916007918a9452600681528383208584528152878484205587835252205538808080612b7b565b634e487b7160e01b83526011600452602483fd5b634e487b7160e01b84526041600452602484fd5b878414612b7357612c258861299f565b878452600783528984205490898552600684528a852091818103612c5f575b5088855260078452848b812055845282528289812055612b73565b8186528285528b862054818752808d8820558652600785528b86205538612c44565b612c8a88612e6f565b888452600383528984208054600019019055612ae5565b80612cec575b15612cb25738612adb565b888789612ccf576024915190637e27328960e01b82526004820152fd5b905163177e802f60e01b8152908190611f4b903360048401612809565b503388148015612d11575b80612ca757508683526004825233868a8520541614612ca7565b5087835260058252888320338452825260ff8984205416612cf7565b604051633250574960e11b815260006004820152602490fd5b9190612d53828285612aa8565b803b612d5f5750505050565b612da160018060a01b0380921694604051938493630a85bd0160e11b968786523360048701521660248501526044840152608060648401526084830190612783565b03906020816000938185885af190829082612e20575b5050612def5782612dc6612efe565b8051919082612de857604051633250574960e11b815260048101839052602490fd5b9050602001fd5b6001600160e01b03191603612e08575038808080612a3f565b60249060405190633250574960e11b82526004820152fd5b909192506020813d8211612e67575b81612e3c602093836128c8565b81010312612e635751906001600160e01b031982168203612e605750903880612db7565b80fd5b5080fd5b3d9150612e2f565b600090815260046020526040902080546001600160a01b0319169055565b6000818152600260205260409020546001600160a01b0316908115612eb0575090565b60249060405190637e27328960e01b82526004820152fd5b6008548110156109ee57600860005260206000200190600090565b600e548110156109ee57600e60005260206000200190600090565b3d15612f29573d90612f0f826128eb565b91612f1d60405193846128c8565b82523d6000602084013e565b606090565b818102929181159184041417156108d857565b6001600160801b0391821690821601919082116108d857565b80518210156109ee5760209160051b010190565b601e548110156109ee57601e6000526003602060002091020190600090565b60ff60059116029060ff82169182036108d857565b60ff60029116019060ff82116108d857565b6001600160401b0391821690821601919082116108d857565b919082018092116108d857565b919082039182116108d857565b33600090815260196020526040812080546001600160801b0319166001600160801b0393841617815560019081018054929392909163ffffffff90818316018181116130ac5763ffffffff199092169116179055601a54916001600160401b03908184166001019082821161309857501690600160401b600160c01b039061308390348116906001600160401b03198616851760401c16612f41565b60401b169160018060c01b0319161717601a55565b634e487b7160e01b81526011600452602490fd5b634e487b7160e01b86526011600452602486fd5b604051906130cd82612892565b60018252600160fd1b6020830152565b3360009081526019602052604081206001808201805463ffffffff1916909117905580546001600160801b03199081166001600160801b0394851617909155600e54909290600160401b8110156131c65760029161314382600160409401600e55612ee3565b81549060031b9033821b9160018060a01b03901b1916179055600e54169233815260196020522001918254161790556131c460405161318181612892565b600781526657656c636f6d6560c81b602082015261319d6130c0565b604051916131aa83612892565b600783526677656c636f6d6560c81b602084015233613266565b565b634e487b7160e01b83526041600452602483fd5b6001600160801b039081169081146108d85760010190565b60135460009291613202826129d8565b91600190818116908115613253575060011461321d57505050565b9091929350601360005260209081600020906000915b85831061324257505050500190565b805485840152918301918101613233565b60ff191683525050811515909102019150565b91939290936020946132a186549460018060801b039081871696879261328b846131da565b6001600160801b031990921691161789556133bf565b60405192600092601454936132b5856129d8565b808752898701956001908181169081156133a25750600114613367575b5050600486959361332c8b6131c49b9c97956132f661160c9b61053397038b6128c8565b604051978161330e8a93518092868087019101612760565b82016133208c51809386840190612760565b010380885201866128c8565b60405195869161334d6133408385016131f2565b9182815194859201612760565b01632e706e6760e01b815203601b198101865201846128c8565b9150601460005289600020916000925b82841061338f5750505085018801600461160c6132d2565b80548985018d0152928b01928101613377565b60ff191688525050151560051b860189019050600461160c6132d2565b6001600160a01b03908082168015612d2d57600093808552602090600282526040948587205416938415948486159687613568575b818a5260038652888a2080546001019055848a5260028652888a2080546001600160a01b0319168317905584828460008051602061409f8339815191528d80a4156134fa575060085483895260098552878920819055600160401b8110156134e6579061346c84612b5a8460018a9601600855612ec8565b03613495575b5050505061347e575050565b6024925051906339e3563760e11b82526004820152fd5b61349e9061299f565b6000198101939084116134d25786526006825284862083875282528486208190558552600790528284205538808080613472565b634e487b7160e01b87526011600452602487fd5b634e487b7160e01b89526041600452602489fd5b9080821461346c5761350b8161299f565b848a5260078652888a205490828b5260068752898b2091818103613545575b50858b52600787528a8a8120558a528552888881205561346c565b818c528288528a8c2054818d528b8d208190558c52600788528a8c20553861352a565b61357185612e6f565b828a5260038652888a2080546000190190556133f4565b818110613593575050565b60008155600101613588565b9190601f81116135ae57505050565b6131c4926000526020600020906020601f840160051c83019310610eee57601f0160051c0190613588565b6000818152600a60209081526040822084519495949193929091906001600160401b0382116136d6576136168261361085546129d8565b8561359f565b8490601f831160011461366457906000805160206140df833981519152969783613659575b50508160011b916000199060031b1c19161790555b604051908152a1565b01519050388061363b565b9196601f198816848452868420935b8181106136bf57509160019391896000805160206140df833981519152999a94106136a6575b505050811b019055613650565b015160001960f88460031b161c19169055388080613699565b929387600181928786015181550195019301613673565b634e487b7160e01b81526041600452602490fd5b906136f4826128eb565b61370160405191826128c8565b8281528092613712601f19916128eb565b0190602036910137565b6000908072184f03e93ff9f4daa797ed6e38ed64bf6a1f0160401b8082101561384b575b506904ee2d6d415b85acef8160201b8083101561383c575b50662386f26fc100008083101561382d575b506305f5e1008083101561381e575b506127108083101561380f575b5060648210156137ff575b600a809210156137f5575b6001908160216137ad8287016136ea565b95860101905b6137bf575b5050505090565b600019019083906f181899199a1a9b1b9c1cb0b131b232b360811b8282061a8353049182156137f0579190826137b3565b6137b8565b916001019161379c565b9190606460029104910191613791565b60049193920491019138613786565b60089193920491019138613779565b6010919392049101913861376a565b60209193920491019138613758565b604093508104915038613740565b9063ffff000082549160101b169063ffff00001916179055565b600a9060070b02908160070b9182036108d857565b600791820b910b019060016001603f1b0319821260016001603f1b038313176108d857565b805460209290921b600160201b600160601b0316600160201b600160601b0319909216919091179055565b6131c46040516138e781612892565b60138152722a3430b735b9903337b9103237b730ba34b7b760691b6020820152604051613913816128ad565b602381527f45766572797468696e672077696c6c206265207573656420666f72206368617260208201526269747960e81b60408201526040519161395683612892565b60068352657468616e6b7360d01b602084015233613266565b61397981546129d8565b9081613983575050565b81601f60009311600114613995575055565b9080839182526139b4601f60208420940160051c840160018501613588565b5555565b60001981146108d85760010190565b81519192916001600160401b038111610cb7576139ee816139e884546129d8565b8461359f565b602080601f8311600114613a2a575081929394600092613a1f575b50508160011b916000199060031b1c1916179055565b015190503880613a09565b90601f198316958460005282600020926000905b888210613a7657505083600195969710613a5d575b505050811b019055565b015160001960f88460031b161c19169055388080613a53565b80600185968294968601518155019501930190613a3e565b9081518110156109ee570160200190565b9291613ab3613aae8383612fda565b6136ea565b91805b828110613ac557509193505050565b613af6906001600160f81b0319613adc8289613a8e565b5116610943613aeb8584612fda565b9160001a9187613a8e565b613ab6565b60ff602f199116019060ff82116108d857565b906000809283915b8151831015613b6957600a61ffff809216028181169081036130ac5760ff613b41610a5a8686613a8e565b1601908111613b5557600190920191613b16565b634e487b7160e01b85526011600452602485fd5b93505050565b613cd9603d92613c78605c613d2396613d1398604051948592602098607b60f81b8a86015267113730b6b2911d1160c11b6021860152613bb8815180928c602989019101612760565b84019161088b60f21b928360298201526e113232b9b1b934b83a34b7b7111d1160891b602b820152613bf3825180938d603a85019101612760565b0182603a820152691134b6b0b3b2911d101160b11b603c820152613c20825180938c604685019101612760565b01906046820152711132bc3a32b93730b62fb634b735911d101160711b6048820152613c55825180938a605a85019101612760565b01601160f91b605a820152607d60f81b605b82015203603c8101845201826128c8565b60405190613c85826128ad565b604082527f4142434445464748494a4b4c4d4e4f505152535455565758595a616263646566848301527f6768696a6b6c6d6e6f707172737475767778797a303132333435363738392b2f6040830152613d26565b60405194827f646174613a6170706c69636174696f6e2f6a736f6e3b6261736536342c000000879485015282519283918686019101612760565b810103601d8101845201826128c8565b90565b805115613e095780516002918282018092116108d8576003918290046001600160fe1b03811681036108d857613d5f908495941b6136ea565b936020850193829183518401906020820192835194600085525b838110613db8575050505052510680600114613da557600214613d9a575090565b603d90600019015390565b50603d9081600019820153600119015390565b87600491999293949901918251600190603f9082828260121c16880101518453828282600c1c16880101518385015382828260061c1688010151888501531685010151898201530197929190613d79565b5050604051613e1781612877565b6000815290565b80156108d8576000190190565b613e41670de0b6b3a76400008083069204613fc0565b908015613fbc5790604051613e5581612892565b60128152602092833681840137601290815b613f7157505080515b80151580613f2d575b15613e8c57613e8790613e1e565b613e70565b929091928015613f2757613e9f816136ea565b92600090815b838110613efd5750505050613eee92613d23926021926040519583613ed38895518092858089019101612760565b840191601760f91b8184015283519384918785019101612760565b010360018101845201826128c8565b613f22906001600160f81b0319613f148285613a8e565b5116841a6109438289613a8e565b613ea5565b50505090565b506000198101818111613f5c57600360fc1b906001600160f81b031990613f549085613a8e565b511614613e79565b60246000634e487b7160e01b81526011600452fd5b600a6030918181068301809311613f5c576000198401848111613f5c57613fb59360f81b6001600160f81b03191660001a90613fad9087613a8e565b530491613e1e565b9081613e67565b5090565b80156140405780600081805b6140285750613fda816136ea565b925b613fe557505090565b60001981019081116108d8578091600a91603083830681018091116108d85760f81b6001600160f81b03191660001a9061401f9086613a8e565b53049081613fdc565b9150614035600a916139b8565b910480839291613fcc565b5060405161404d81612892565b60018152600360fc1b60208201529056fe66de8ffda797e3de9c05e8fc57b3bf0ec28a930d40b0d285d93c06501cf6a0908be0079c531659141344cd1fd0a4f28419497f9722a3daafe3b4186f6b6457e0ddf252ad1be2c89b69c2b068fc378daa952ba7f163c4a11628f55a4df523b3efce6d7b5282bd9a3661ae061feed1dbda4e52ab073b1f9285be6e155d9c38d4ecf8e1a15aba9398e019f0b49df1a4fde98ee17ae345cb5f6b5e2c27f5033e8ce7a2646970667358221220965230a1983c55e6221534da0b32a0ccd6cbd9282343aa72cdaa05410e4cc5a364736f6c63430008140033290decd9548b62a8d60345a988386fc84ba6bc95484008f6362f93160ef3e56366de8ffda797e3de9c05e8fc57b3bf0ec28a930d40b0d285d93c06501cf6a090b10e2d527612073b26eecdfd717e6a320cf44b4afac2b0732d9fcbe2b7fa0cf68d1108e10bcb7c27dddfc02ed9d693a074039d026cf4ea4240b40f7d581ac802",
  "linkReferences": {},
  "deployedLinkReferences": {}
}