{
  "_format": "hh-sol-artifact-1",
  "contractName": "Archiary",
  "sourceName": "contracts/Archiary.sol",
  "abi": [
    {
      "inputs": [
        {
          "internalType": "uint256",
          "name": "_attemptMinimum",
          "type": "uint256"
        },
        {
          "internalType": "uint256",
          "name": "_multiplyToWei",
          "type": "uint256"
        }
      ],
      "stateMutability": "nonpayable",
      "type": "constructor"
    },
    {
      "inputs": [],
      "name": "Active_false",
      "type": "error"
    },
    {
      "inputs": [],
      "name": "Amount_is_too_low_for_fee",
      "type": "error"
    },
    {
      "inputs": [],
      "name": "Clues_no_or_low_data",
      "type": "error"
    },
    {
      "inputs": [],
      "name": "Cooldown_limit",
      "type": "error"
    },
    {
      "inputs": [
        {
          "internalType": "uint256",
          "name": "numerator",
          "type": "uint256"
        },
        {
          "internalType": "uint256",
          "name": "denominator",
          "type": "uint256"
        }
      ],
      "name": "ERC2981InvalidDefaultRoyalty",
      "type": "error"
    },
    {
      "inputs": [
        {
          "internalType": "address",
          "name": "receiver",
          "type": "address"
        }
      ],
      "name": "ERC2981InvalidDefaultRoyaltyReceiver",
      "type": "error"
    },
    {
      "inputs": [
        {
          "internalType": "uint256",
          "name": "tokenId",
          "type": "uint256"
        },
        {
          "internalType": "uint256",
          "name": "numerator",
          "type": "uint256"
        },
        {
          "internalType": "uint256",
          "name": "denominator",
          "type": "uint256"
        }
      ],
      "name": "ERC2981InvalidTokenRoyalty",
      "type": "error"
    },
    {
      "inputs": [
        {
          "internalType": "uint256",
          "name": "tokenId",
          "type": "uint256"
        },
        {
          "internalType": "address",
          "name": "receiver",
          "type": "address"
        }
      ],
      "name": "ERC2981InvalidTokenRoyaltyReceiver",
      "type": "error"
    },
    {
      "inputs": [],
      "name": "ERC721EnumerableForbiddenBatchMint",
      "type": "error"
    },
    {
      "inputs": [
        {
          "internalType": "address",
          "name": "sender",
          "type": "address"
        },
        {
          "internalType": "uint256",
          "name": "tokenId",
          "type": "uint256"
        },
        {
          "internalType": "address",
          "name": "owner",
          "type": "address"
        }
      ],
      "name": "ERC721IncorrectOwner",
      "type": "error"
    },
    {
      "inputs": [
        {
          "internalType": "address",
          "name": "operator",
          "type": "address"
        },
        {
          "internalType": "uint256",
          "name": "tokenId",
          "type": "uint256"
        }
      ],
      "name": "ERC721InsufficientApproval",
      "type": "error"
    },
    {
      "inputs": [
        {
          "internalType": "address",
          "name": "approver",
          "type": "address"
        }
      ],
      "name": "ERC721InvalidApprover",
      "type": "error"
    },
    {
      "inputs": [
        {
          "internalType": "address",
          "name": "operator",
          "type": "address"
        }
      ],
      "name": "ERC721InvalidOperator",
      "type": "error"
    },
    {
      "inputs": [
        {
          "internalType": "address",
          "name": "owner",
          "type": "address"
        }
      ],
      "name": "ERC721InvalidOwner",
      "type": "error"
    },
    {
      "inputs": [
        {
          "internalType": "address",
          "name": "receiver",
          "type": "address"
        }
      ],
      "name": "ERC721InvalidReceiver",
      "type": "error"
    },
    {
      "inputs": [
        {
          "internalType": "address",
          "name": "sender",
          "type": "address"
        }
      ],
      "name": "ERC721InvalidSender",
      "type": "error"
    },
    {
      "inputs": [
        {
          "internalType": "uint256",
          "name": "tokenId",
          "type": "uint256"
        }
      ],
      "name": "ERC721NonexistentToken",
      "type": "error"
    },
    {
      "inputs": [
        {
          "internalType": "address",
          "name": "owner",
          "type": "address"
        },
        {
          "internalType": "uint256",
          "name": "index",
          "type": "uint256"
        }
      ],
      "name": "ERC721OutOfBoundsIndex",
      "type": "error"
    },
    {
      "inputs": [],
      "name": "NotAllowed",
      "type": "error"
    },
    {
      "inputs": [
        {
          "internalType": "address",
          "name": "owner",
          "type": "address"
        }
      ],
      "name": "OwnableInvalidOwner",
      "type": "error"
    },
    {
      "inputs": [
        {
          "internalType": "address",
          "name": "account",
          "type": "address"
        }
      ],
      "name": "OwnableUnauthorizedAccount",
      "type": "error"
    },
    {
      "inputs": [],
      "name": "Payment_refund_to_sender_failed",
      "type": "error"
    },
    {
      "inputs": [],
      "name": "Payment_to_owner_failed",
      "type": "error"
    },
    {
      "inputs": [],
      "name": "Payment_to_winnerr_failed",
      "type": "error"
    },
    {
      "inputs": [],
      "name": "Winner_no_longer_play",
      "type": "error"
    },
    {
      "anonymous": false,
      "inputs": [
        {
          "indexed": true,
          "internalType": "address",
          "name": "owner",
          "type": "address"
        },
        {
          "indexed": true,
          "internalType": "address",
          "name": "approved",
          "type": "address"
        },
        {
          "indexed": true,
          "internalType": "uint256",
          "name": "tokenId",
          "type": "uint256"
        }
      ],
      "name": "Approval",
      "type": "event"
    },
    {
      "anonymous": false,
      "inputs": [
        {
          "indexed": true,
          "internalType": "address",
          "name": "owner",
          "type": "address"
        },
        {
          "indexed": true,
          "internalType": "address",
          "name": "operator",
          "type": "address"
        },
        {
          "indexed": false,
          "internalType": "bool",
          "name": "approved",
          "type": "bool"
        }
      ],
      "name": "ApprovalForAll",
      "type": "event"
    },
    {
      "anonymous": false,
      "inputs": [
        {
          "indexed": false,
          "internalType": "uint256",
          "name": "_fromTokenId",
          "type": "uint256"
        },
        {
          "indexed": false,
          "internalType": "uint256",
          "name": "_toTokenId",
          "type": "uint256"
        }
      ],
      "name": "BatchMetadataUpdate",
      "type": "event"
    },
    {
      "anonymous": false,
      "inputs": [
        {
          "indexed": false,
          "internalType": "uint256",
          "name": "_tokenId",
          "type": "uint256"
        }
      ],
      "name": "MetadataUpdate",
      "type": "event"
    },
    {
      "anonymous": false,
      "inputs": [
        {
          "indexed": true,
          "internalType": "address",
          "name": "previousOwner",
          "type": "address"
        },
        {
          "indexed": true,
          "internalType": "address",
          "name": "newOwner",
          "type": "address"
        }
      ],
      "name": "OwnershipTransferred",
      "type": "event"
    },
    {
      "anonymous": false,
      "inputs": [
        {
          "indexed": true,
          "internalType": "address",
          "name": "from",
          "type": "address"
        },
        {
          "indexed": true,
          "internalType": "address",
          "name": "to",
          "type": "address"
        },
        {
          "indexed": true,
          "internalType": "uint256",
          "name": "tokenId",
          "type": "uint256"
        }
      ],
      "name": "Transfer",
      "type": "event"
    },
    {
      "inputs": [
        {
          "internalType": "address",
          "name": "to",
          "type": "address"
        },
        {
          "internalType": "uint256",
          "name": "tokenId",
          "type": "uint256"
        }
      ],
      "name": "approve",
      "outputs": [],
      "stateMutability": "nonpayable",
      "type": "function"
    },
    {
      "inputs": [
        {
          "internalType": "address",
          "name": "owner",
          "type": "address"
        }
      ],
      "name": "balanceOf",
      "outputs": [
        {
          "internalType": "uint256",
          "name": "",
          "type": "uint256"
        }
      ],
      "stateMutability": "view",
      "type": "function"
    },
    {
      "inputs": [
        {
          "internalType": "bytes[]",
          "name": "_encodedItems",
          "type": "bytes[]"
        }
      ],
      "name": "changeAddItems",
      "outputs": [],
      "stateMutability": "nonpayable",
      "type": "function"
    },
    {
      "inputs": [
        {
          "internalType": "uint256",
          "name": "_attemptMinimum",
          "type": "uint256"
        },
        {
          "internalType": "bool",
          "name": "_active",
          "type": "bool"
        },
        {
          "internalType": "uint256",
          "name": "_multiplyToWei",
          "type": "uint256"
        }
      ],
      "name": "config",
      "outputs": [],
      "stateMutability": "nonpayable",
      "type": "function"
    },
    {
      "inputs": [],
      "name": "deleteAllItems",
      "outputs": [],
      "stateMutability": "nonpayable",
      "type": "function"
    },
    {
      "inputs": [],
      "name": "getAllPlayers",
      "outputs": [
        {
          "internalType": "address[]",
          "name": "",
          "type": "address[]"
        }
      ],
      "stateMutability": "view",
      "type": "function"
    },
    {
      "inputs": [],
      "name": "getAllUsersData",
      "outputs": [
        {
          "components": [
            {
              "internalType": "uint64",
              "name": "attemptCounter",
              "type": "uint64"
            },
            {
              "internalType": "uint128",
              "name": "attemptSum",
              "type": "uint128"
            },
            {
              "internalType": "uint64",
              "name": "refundCounter",
              "type": "uint64"
            },
            {
              "internalType": "uint128",
              "name": "refundSum",
              "type": "uint128"
            },
            {
              "internalType": "uint32",
              "name": "winCounter",
              "type": "uint32"
            },
            {
              "internalType": "uint128",
              "name": "winSum",
              "type": "uint128"
            },
            {
              "internalType": "uint8",
              "name": "feeCounter",
              "type": "uint8"
            },
            {
              "internalType": "uint128",
              "name": "feeSumPartial",
              "type": "uint128"
            },
            {
              "internalType": "uint128",
              "name": "feeSum",
              "type": "uint128"
            }
          ],
          "internalType": "struct AllUsersData",
          "name": "data",
          "type": "tuple"
        }
      ],
      "stateMutability": "view",
      "type": "function"
    },
    {
      "inputs": [
        {
          "internalType": "uint256",
          "name": "tokenId",
          "type": "uint256"
        }
      ],
      "name": "getApproved",
      "outputs": [
        {
          "internalType": "address",
          "name": "",
          "type": "address"
        }
      ],
      "stateMutability": "view",
      "type": "function"
    },
    {
      "inputs": [],
      "name": "getBalanceInEth",
      "outputs": [
        {
          "internalType": "string",
          "name": "",
          "type": "string"
        }
      ],
      "stateMutability": "view",
      "type": "function"
    },
    {
      "inputs": [],
      "name": "getCluesAll",
      "outputs": [
        {
          "components": [
            {
              "internalType": "bytes32",
              "name": "clue",
              "type": "bytes32"
            },
            {
              "internalType": "uint64",
              "name": "price",
              "type": "uint64"
            },
            {
              "internalType": "uint16",
              "name": "clueparametr0",
              "type": "uint16"
            },
            {
              "internalType": "uint16",
              "name": "clueparametr1",
              "type": "uint16"
            },
            {
              "internalType": "uint64",
              "name": "clueparametr2",
              "type": "uint64"
            },
            {
              "internalType": "uint64",
              "name": "clueparametr3",
              "type": "uint64"
            }
          ],
          "internalType": "struct CluesList[]",
          "name": "",
          "type": "tuple[]"
        }
      ],
      "stateMutability": "view",
      "type": "function"
    },
    {
      "inputs": [
        {
          "internalType": "uint256",
          "name": "start",
          "type": "uint256"
        },
        {
          "internalType": "uint256",
          "name": "count",
          "type": "uint256"
        }
      ],
      "name": "getCluesPage",
      "outputs": [
        {
          "components": [
            {
              "internalType": "bytes32",
              "name": "clue",
              "type": "bytes32"
            },
            {
              "internalType": "uint64",
              "name": "price",
              "type": "uint64"
            },
            {
              "internalType": "uint16",
              "name": "clueparametr0",
              "type": "uint16"
            },
            {
              "internalType": "uint16",
              "name": "clueparametr1",
              "type": "uint16"
            },
            {
              "internalType": "uint64",
              "name": "clueparametr2",
              "type": "uint64"
            },
            {
              "internalType": "uint64",
              "name": "clueparametr3",
              "type": "uint64"
            }
          ],
          "internalType": "struct CluesList[]",
          "name": "",
          "type": "tuple[]"
        }
      ],
      "stateMutability": "view",
      "type": "function"
    },
    {
      "inputs": [],
      "name": "getRebusData",
      "outputs": [
        {
          "components": [
            {
              "internalType": "uint256",
              "name": "attemptMinimum",
              "type": "uint256"
            },
            {
              "internalType": "bool",
              "name": "active",
              "type": "bool"
            },
            {
              "internalType": "uint256",
              "name": "multiplyToWei",
              "type": "uint256"
            }
          ],
          "internalType": "struct RebusData",
          "name": "",
          "type": "tuple"
        }
      ],
      "stateMutability": "view",
      "type": "function"
    },
    {
      "inputs": [],
      "name": "getUserDataOfAll",
      "outputs": [
        {
          "components": [
            {
              "internalType": "uint128",
              "name": "attemptSum",
              "type": "uint128"
            },
            {
              "internalType": "uint128",
              "name": "winSum",
              "type": "uint128"
            },
            {
              "internalType": "uint32",
              "name": "attemptCounter",
              "type": "uint32"
            },
            {
              "internalType": "uint32",
              "name": "depositFeeCounter",
              "type": "uint32"
            },
            {
              "internalType": "uint16",
              "name": "returnDepositMinimum",
              "type": "uint16"
            },
            {
              "internalType": "uint16",
              "name": "returnDepositMaximum",
              "type": "uint16"
            },
            {
              "internalType": "uint16",
              "name": "depositFee",
              "type": "uint16"
            },
            {
              "internalType": "uint16",
              "name": "clueLast",
              "type": "uint16"
            },
            {
              "internalType": "uint8",
              "name": "winCounter",
              "type": "uint8"
            },
            {
              "internalType": "uint128",
              "name": "initialized",
              "type": "uint128"
            },
            {
              "internalType": "bool",
              "name": "cluesGeneratedOnly",
              "type": "bool"
            },
            {
              "internalType": "bool",
              "name": "cluesRandom",
              "type": "bool"
            }
          ],
          "internalType": "struct UserData[]",
          "name": "",
          "type": "tuple[]"
        }
      ],
      "stateMutability": "view",
      "type": "function"
    },
    {
      "inputs": [
        {
          "internalType": "address",
          "name": "owner",
          "type": "address"
        },
        {
          "internalType": "address",
          "name": "operator",
          "type": "address"
        }
      ],
      "name": "isApprovedForAll",
      "outputs": [
        {
          "internalType": "bool",
          "name": "",
          "type": "bool"
        }
      ],
      "stateMutability": "view",
      "type": "function"
    },
    {
      "inputs": [
        {
          "internalType": "string",
          "name": "_from",
          "type": "string"
        },
        {
          "internalType": "string",
          "name": "_message",
          "type": "string"
        },
        {
          "internalType": "bytes32",
          "name": "_add",
          "type": "bytes32"
        }
      ],
      "name": "messageToOwner",
      "outputs": [],
      "stateMutability": "payable",
      "type": "function"
    },
    {
      "inputs": [
        {
          "internalType": "address",
          "name": "_to",
          "type": "address"
        },
        {
          "internalType": "string",
          "name": "_nftName",
          "type": "string"
        },
        {
          "internalType": "string",
          "name": "_nftDesc",
          "type": "string"
        },
        {
          "internalType": "string",
          "name": "_nftImage",
          "type": "string"
        },
        {
          "internalType": "bytes32",
          "name": "_external_url",
          "type": "bytes32"
        }
      ],
      "name": "mintSimpleNFT",
      "outputs": [],
      "stateMutability": "nonpayable",
      "type": "function"
    },
    {
      "inputs": [],
      "name": "name",
      "outputs": [
        {
          "internalType": "string",
          "name": "",
          "type": "string"
        }
      ],
      "stateMutability": "view",
      "type": "function"
    },
    {
      "inputs": [],
      "name": "nextTokenId",
      "outputs": [
        {
          "internalType": "uint128",
          "name": "",
          "type": "uint128"
        }
      ],
      "stateMutability": "view",
      "type": "function"
    },
    {
      "inputs": [],
      "name": "owner",
      "outputs": [
        {
          "internalType": "address",
          "name": "",
          "type": "address"
        }
      ],
      "stateMutability": "view",
      "type": "function"
    },
    {
      "inputs": [
        {
          "internalType": "uint256",
          "name": "tokenId",
          "type": "uint256"
        }
      ],
      "name": "ownerOf",
      "outputs": [
        {
          "internalType": "address",
          "name": "",
          "type": "address"
        }
      ],
      "stateMutability": "view",
      "type": "function"
    },
    {
      "inputs": [],
      "name": "renounceOwnership",
      "outputs": [],
      "stateMutability": "nonpayable",
      "type": "function"
    },
    {
      "inputs": [
        {
          "internalType": "uint256",
          "name": "tokenId",
          "type": "uint256"
        },
        {
          "internalType": "uint256",
          "name": "salePrice",
          "type": "uint256"
        }
      ],
      "name": "royaltyInfo",
      "outputs": [
        {
          "internalType": "address",
          "name": "receiver",
          "type": "address"
        },
        {
          "internalType": "uint256",
          "name": "amount",
          "type": "uint256"
        }
      ],
      "stateMutability": "view",
      "type": "function"
    },
    {
      "inputs": [
        {
          "internalType": "address",
          "name": "from",
          "type": "address"
        },
        {
          "internalType": "address",
          "name": "to",
          "type": "address"
        },
        {
          "internalType": "uint256",
          "name": "tokenId",
          "type": "uint256"
        }
      ],
      "name": "safeTransferFrom",
      "outputs": [],
      "stateMutability": "nonpayable",
      "type": "function"
    },
    {
      "inputs": [
        {
          "internalType": "address",
          "name": "from",
          "type": "address"
        },
        {
          "internalType": "address",
          "name": "to",
          "type": "address"
        },
        {
          "internalType": "uint256",
          "name": "tokenId",
          "type": "uint256"
        },
        {
          "internalType": "bytes",
          "name": "data",
          "type": "bytes"
        }
      ],
      "name": "safeTransferFrom",
      "outputs": [],
      "stateMutability": "nonpayable",
      "type": "function"
    },
    {
      "inputs": [
        {
          "internalType": "string",
          "name": "_from",
          "type": "string"
        },
        {
          "internalType": "string",
          "name": "_name",
          "type": "string"
        },
        {
          "internalType": "uint256",
          "name": "_record",
          "type": "uint256"
        }
      ],
      "name": "sendGet",
      "outputs": [],
      "stateMutability": "payable",
      "type": "function"
    },
    {
      "inputs": [
        {
          "internalType": "uint256",
          "name": "_record",
          "type": "uint256"
        }
      ],
      "name": "sendGetPrice",
      "outputs": [
        {
          "internalType": "uint256",
          "name": "",
          "type": "uint256"
        }
      ],
      "stateMutability": "view",
      "type": "function"
    },
    {
      "inputs": [
        {
          "internalType": "bool",
          "name": "_state",
          "type": "bool"
        }
      ],
      "name": "setActive",
      "outputs": [],
      "stateMutability": "nonpayable",
      "type": "function"
    },
    {
      "inputs": [
        {
          "internalType": "address",
          "name": "operator",
          "type": "address"
        },
        {
          "internalType": "bool",
          "name": "approved",
          "type": "bool"
        }
      ],
      "name": "setApprovalForAll",
      "outputs": [],
      "stateMutability": "nonpayable",
      "type": "function"
    },
    {
      "inputs": [
        {
          "internalType": "bytes4",
          "name": "interfaceId",
          "type": "bytes4"
        }
      ],
      "name": "supportsInterface",
      "outputs": [
        {
          "internalType": "bool",
          "name": "",
          "type": "bool"
        }
      ],
      "stateMutability": "view",
      "type": "function"
    },
    {
      "inputs": [],
      "name": "symbol",
      "outputs": [
        {
          "internalType": "string",
          "name": "",
          "type": "string"
        }
      ],
      "stateMutability": "view",
      "type": "function"
    },
    {
      "inputs": [
        {
          "internalType": "uint256",
          "name": "index",
          "type": "uint256"
        }
      ],
      "name": "tokenByIndex",
      "outputs": [
        {
          "internalType": "uint256",
          "name": "",
          "type": "uint256"
        }
      ],
      "stateMutability": "view",
      "type": "function"
    },
    {
      "inputs": [
        {
          "internalType": "address",
          "name": "owner",
          "type": "address"
        },
        {
          "internalType": "uint256",
          "name": "index",
          "type": "uint256"
        }
      ],
      "name": "tokenOfOwnerByIndex",
      "outputs": [
        {
          "internalType": "uint256",
          "name": "",
          "type": "uint256"
        }
      ],
      "stateMutability": "view",
      "type": "function"
    },
    {
      "inputs": [
        {
          "internalType": "uint256",
          "name": "tokenId",
          "type": "uint256"
        }
      ],
      "name": "tokenURI",
      "outputs": [
        {
          "internalType": "string",
          "name": "",
          "type": "string"
        }
      ],
      "stateMutability": "view",
      "type": "function"
    },
    {
      "inputs": [],
      "name": "totalSupply",
      "outputs": [
        {
          "internalType": "uint256",
          "name": "",
          "type": "uint256"
        }
      ],
      "stateMutability": "view",
      "type": "function"
    },
    {
      "inputs": [
        {
          "internalType": "address",
          "name": "from",
          "type": "address"
        },
        {
          "internalType": "address",
          "name": "to",
          "type": "address"
        },
        {
          "internalType": "uint256",
          "name": "tokenId",
          "type": "uint256"
        }
      ],
      "name": "transferFrom",
      "outputs": [],
      "stateMutability": "nonpayable",
      "type": "function"
    },
    {
      "inputs": [
        {
          "internalType": "address",
          "name": "newOwner",
          "type": "address"
        }
      ],
      "name": "transferOwnership",
      "outputs": [],
      "stateMutability": "nonpayable",
      "type": "function"
    },
    {
      "inputs": [],
      "name": "withdrawAll",
      "outputs": [],
      "stateMutability": "nonpayable",
      "type": "function"
    },
    {
      "inputs": [],
      "name": "withdrawFees",
      "outputs": [],
      "stateMutability": "nonpayable",
      "type": "function"
    },
    {
      "stateMutability": "payable",
      "type": "receive"
    }
  ],
  "bytecode": "0x6080346200044357601f9062003bda906001600160401b03601f19388490038581018216840190838211858310176200042d57808591604097889485528339810103126200044357825190602080940151916200005b62000448565b91600b83526a105c98da1a585c9e53919560aa1b868401526200007d62000448565b976008895267415243484941525960c01b878a0152835198868a116200042d576000998a54956001968781811c9116801562000422575b8b8210146200040e57908185849311620003b8575b508a908d8684116001146200035657926200034a575b5050600019600383901b1c191690861b178a555b805192878411620003365785548681811c911680156200032b575b8a82101462000317579081848695949311620002c0575b50899284116001146200025f57508a9262000253575b5050600019600383901b1c191690831b1782555b33156200023b57600d8054336001600160a01b0319821681179092556001600160a01b03167f8be0079c531659141344cd1fd0a4f28419497f9722a3daafe3b4186f6b6457e08980a3601980546001600160801b031916905585516060810185811182821017620002275784918891825283815284888201520152600f5560ff19601054161760105560115582519083820190828210908211176200021357836101f4949550523381520152607d60a21b3317600b55516137719081620004698239f35b634e487b7160e01b85526041600452602485fd5b634e487b7160e01b89526041600452602489fd5b8551631e4fbdf760e01b815260048101889052602490fd5b0151905038806200013b565b868c52898c20879590939291168c5b8b828210620002a957505084116200028f575b505050811b0182556200014f565b015160001960f88460031b161c1916905538808062000281565b83850151865589979095019493840193016200026e565b9091929350868c52898c208480870160051c8201928c88106200030d575b9187968a92969594930160051c01915b828110620002fe57505062000125565b8e8155879650899101620002ee565b92508192620002de565b634e487b7160e01b8c52602260045260248cfd5b90607f16906200010e565b634e487b7160e01b8b52604160045260248bfd5b015190503880620000df565b9190878a95168380528d80852094905b828210620003a0575050841162000386575b505050811b018a55620000f3565b015160001960f88460031b161c1916905538808062000378565b8385015186558c979095019493840193018e62000366565b9091508c80528a8d208580850160051c8201928d861062000404575b859493910160051c9091019089908f5b838210620003f557505050620000c9565b81558594508a91018f620003e4565b92508192620003d4565b634e487b7160e01b8d52602260045260248dfd5b90607f1690620000b4565b634e487b7160e01b600052604160045260246000fd5b600080fd5b60408051919082016001600160401b038111838210176200042d5760405256fe608080604052600436101561007a575b50361561001b57600080fd5b60ff60105416158061006b575b50336000908152601260205260409020600201546001600160801b03161561005d576100533461289f565b61005b612ff4565b005b610066346129b8565b610053565b6100755738610028565b600080fd5b60003560e01c90816301ffc9a714611f245750806306fdde0314611e81578063081812fc14611e43578063095ea7b314611d5c5780631662ae3614611cb357806318160ddd14611c955780631a33576114611c1e57806322931cd914611a9d57806323b872dd14611a865780632a55205a14611a125780632f745c59146119995780633f145317146119575780633f3309ca1461193257806342842e0e1461190a578063476343ee146118265780634f6ccce7146117d0578063544da4f41461174b578063577b6821146112005780635993cf6b146111905780635f650a6114610f035780636352211e14610ed357806370a0823114610eb0578063715018a614610e6557806375794a3c14610e3c578063853828b614610dec5780638c5136af14610a115780638ce62689146108525780638da5cb5b1461082957806395d89b4114610764578063a22cb465146106bf578063a688d1051461067c578063acec338a14610643578063b88d4fde146105f5578063c87b56dd14610507578063dfadebb1146103a8578063e985e9c514610352578063efa1c4821461029f5763f2fde38b14610229573861000f565b3461007557602036600319011261007557610242612025565b61024a612290565b6001600160a01b0390811690811561028657600d80546001600160a01b031981168417909155166000805160206136bc833981519152600080a3005b604051631e4fbdf760e01b815260006004820152602490fd5b34610075576000366003190112610075576102b8612290565b60405180600e5480835260208093018091600e600052846000209060005b868282106103355786866102ec828803836120f5565b604051928392818401908285525180915260408401929160005b82811061031557505050500390f35b83516001600160a01b031685528695509381019392810192600101610306565b83546001600160a01b0316855290930192600192830192016102d6565b346100755760403660031901126100755761036b612025565b61037361203b565b9060018060a01b03809116600052600560205260406000209116600052602052602060ff604060002054166040519015158152f35b34610075576103b6366121af565b60175490818310156104cd578201908183116104b7578082116104af575b506103df828261284b565b916103e983612279565b926103f760405194856120f5565b808452610406601f1991612279565b0160005b81811061046e575050805b82811061042e576040518061042a86826121ef565b0390f35b8061046361043e61046993612867565b5061045261044c868561284b565b916127f7565b61045c82896127e3565b52866127e3565b50612858565b610415565b60209060405161047d81612088565b6000815282600081830152600060408301526000606083015260006080830152600060a083015282880101520161040a565b9050826103d4565b634e487b7160e01b600052601160045260246000fd5b60405162461bcd60e51b81526020600482015260126024820152715374617274206f7574206f662072616e676560701b6044820152606490fd5b34610075576020806003193601126100755760043561052581612716565b50600052600a8152604060002090604051918260008254610545816122f5565b938484526001918683821691826000146105d3575050600114610594575b5050610571925003836120f5565b600060405161057f816120bf565b5261042a604051928284938452830190612000565b85925060005281600020906000915b8583106105bb57505061057193508201018580610563565b805483890185015287945086939092019181016105a3565b925093505061057194915060ff191682840152151560051b8201018580610563565b346100755760803660031901126100755761060e612025565b61061661203b565b606435916001600160401b0383116100755761063961005b933690600401612133565b91604435916125ce565b346100755760203660031901126100755760043580151580910361007557610669612290565b60ff801960105416911617601055600080f35b346100755760203660031901126100755760206106b761069d600435612867565b50600101546011549060601c6001600160401b03166127b7565b604051908152f35b34610075576040366003190112610075576106d8612025565b6106e06121e0565b6001600160a01b0390911690811561074b5733600052600560205260406000208260005260205260406000209015159060ff1981541660ff83161790556040519081527f17307eab39ab6107e8899845ad3d59bd9653f200f220920489ca2b5937696c3160203392a3005b604051630b61174360e31b815260048101839052602490fd5b346100755760003660031901126100755760405160009060018054610788816122f5565b8084529082811690811561080157506001146107c3575b61042a836107af818703826120f5565b604051918291602083526020830190612000565b92508060005260209283600020916000925b8284106107ee575050508101909101906107af8161079f565b80548585018701529285019281016107d5565b61042a95506107af93506020915091849260ff191682840152151560051b820101935061079f565b3461007557600036600319011261007557600d546040516001600160a01b039091168152602090f35b6060366003190112610075576001600160401b036004358181116100755761087e903690600401612133565b9060243590811161007557610897903690600401612133565b90336000526020906012825260018060801b0390816002604060002001541615600014610a03576108c7346129b8565b600f5434106109f7576109d06109c961005b95601954936109aa602687871698886108f18b612ac8565b166001600160801b031998891617601955600d54610919908b906001600160a01b0316612ae0565b60405194610926866120da565b60078652666d65737361676560c81b8287015261094234613488565b9161099b604051968461095e899651809286808a019101611fdd565b850163032ba34160e51b8482015261097f8251809386602485019101611fdd565b01916101d160f51b602484015283519384918785019101611fdd565b010360068101845201826120f5565b6109b261299b565b90604051926109c0846120bf565b600084526131cc565b8094612cac565b60195490828216926109e184612ac8565b169116176019556109f28133612ae0565b612cac565b5050505061005b612ff4565b610a0c3461289f565b6108c7565b6060366003190112610075576004356001600160401b03811161007557610a3c903690600401612133565b6024356001600160401b03811161007557610a5b903690600401612133565b5060175460001981019081116104b75761ffff166044351115610a7a57005b336000908152601260205260409020600201546001600160801b0316610dde57610aa3346129b8565b610ab161069d604435612867565b3410801590610dca575b15610dc1576019546001600160801b03610ad6818316612ac8565b166001600160801b0319821617601955600d54610b06906001600160801b038316906001600160a01b0316612ae0565b610b876024610b1434613488565b610b1f604435612e95565b6040519582610b38889451809260208088019101611fdd565b8301600160fd1b6020820152610b58825180936020602185019101611fdd565b016201d11960ed1b6021820152610b788251809360208785019101611fdd565b010360048101855201836120f5565b610b8f61299b565b91610b9b604435612867565b50549160005b6020811080610da5575b15610bbe57610bb990612858565b610ba1565b9192610bc983612e63565b9260005b818110610d6a575050509083610c09610cbf93610bfa84610cc598610bf3604435612e95565b98896131cc565b906001600160801b0316612cac565b6019546001600160801b03808216959190610c2387612ac8565b6001600160801b0319909216911617601955610c3f8533612ae0565b610c4a604435612867565b50600101546001600160401b031615610d6257610c7e610c6b604435612867565b50600101546001600160401b0316612e95565b610cb960256040518093642830b9b99d60d91b6020830152610ca98151809260208686019101611fdd565b81010360058101845201826120f5565b906131cc565b90612cac565b600d546001600160a01b03163303610cd957005b6001610ce6604435612867565b5001600161ffff825460501c160161ffff81116104b757610d0691612e00565b61005b6064610d16604435612867565b50600101546001600160401b0390610d329060601c8216612e1f565b1604610d5c6001610d44604435612867565b5001805490929060601c6001600160401b0316612886565b90612e3a565b610cb961299b565b6020811015610d8f578083610d8a921a610d8482886130a3565b53612858565b610bcd565b634e487b7160e01b600052603260045260246000fd5b15610d8f5783811a60f81b6001600160f81b0319161515610bab565b5061005b612ff4565b50600d546001600160a01b03163314610abb565b610de73461289f565b610aa3565b3461007557600036600319011261007557610e05612290565b600080808060018060a01b03600d54164790828215610e33575bf115610e2757005b6040513d6000823e3d90fd5b506108fc610e1f565b34610075576000366003190112610075576019546040516001600160801b039091168152602090f35b3461007557600036600319011261007557610e7e612290565b600d80546001600160a01b031981169091556000906001600160a01b03166000805160206136bc8339815191528280a3005b346100755760203660031901126100755760206106b7610ece612025565b6122bc565b34610075576020366003190112610075576020610ef1600435612716565b6040516001600160a01b039091168152f35b3461007557600036600319011261007557610f1c612290565b600e54610f2881612279565b90610f3660405192836120f5565b808252601f19610f4582612279565b0160005b81811061112157505060005b8181106110395760408051602080825285518183018190528187019383019160005b828110610f845784840385f35b909192826101806001928851848060801b038082511683528085830151168584015263ffffffff80604084015116604085015260609081840151169084015261ffff60808181850151169085015260a08181850151169085015260c08181850151169085015260e08301511660e084015261010060ff81840151169084015261012090818301511690830152610140808201511515908301526101608091015115159082015201960191019492919094610f77565b6110428161276c565b60018060a01b0391549060031b1c166000526020906012825260406000206040519061106d826120a3565b805460018060801b03948582168452608091821c8185015260019586840154809263ffffffff8083166040890152826060921c168188015261ffff918291828260401c16878a0152828260501c1660a08a01521c1660c08701528260701c1660e0860152600260ff94858094861c16610100880152015492839182166101208701521c16151561014084015260881c16151561016082015261110f82866127e3565b5261111a81856127e3565b5001610f55565b602090604051611130816120a3565b6000815282600081830152600060408301526000606083015260006080830152600060a0830152600060c0830152600060e08301526000610100830152600061012083015260006101408301526000610160830152828701015201610f49565b34610075576000366003190112610075576111a9612290565b6017546000601755806111b857005b6001600160ff1b03811681036104b7576017600052600190811b6000805160206136fc833981519152908101905b8181106111ef57005b6000808255838201556002016111e6565b34610075576020366003190112610075576004356001600160401b038111610075573660238201121561007557806004013561123b81612279565b9161124960405193846120f5565b8183526024602084019260051b820101903682116100755760248101925b82841061171c5784611277612290565b60005b815181101561005b5761128d81836127e3565b516040519161129b836120da565b600483526020368185013760005b600481106116f05750815160031981019081116104b7576112c990612e63565b9360045b835181101561130f576001600160f81b03196112e982866130a3565b51169060031981018181116104b75761130860019360001a91896130a3565b53016112cd565b50939092915061131f8151612e63565b9360005b825181101561136957611364906001600160f81b03198061134483876130a3565b51169061135460038416886130a3565b51161860001a610d8482896130a3565b611323565b506040519094909250905060a082016001600160401b0381118382101761166a5760405260a036833760009360005b82518110806116e3575b1561140457601f60fa1b6001600160f81b03196113bf83866130a3565b5116146113d5575b6113d090612858565b611398565b94600560ff82161015610d8f5785611fe08260051b1685015260ff808216146104b75760ff16600101946113c7565b509350919080519261141584612e63565b9360005b8181106116b85750506020845194015193602081106116a2575b50815190600182018092116104b75761145b6114566020850193845190846130b4565b61318d565b9151600181018091116104b75761148161147c6040860192835190856130b4565b613123565b905191600183018093116104b7576114a361147c6060870194855190846130b4565b925194600186018096116104b75761145660806114c5920196875190846130b4565b9451906001820182116104b7576114e69181600161145693519201906130b4565b601780546001600160401b03831681811080611680575b1561155e575050509161154961154f92600161155999611521611554999897612867565b509081550180546001600160401b0319166001600160401b0390961695909517855584613084565b82612e00565b612e3a565b612858565b61127a565b9491969361ffff93508391966040519a6115778c612088565b8b526001600160401b0390811660208c0152911660408a01529116606088015216608086015260a0850152600160401b81101561166a576115bd91600182019055612867565b9290926116545760a060016115599483518155019160018060401b0360208201511660018060401b03198454161783556115ff61ffff60408301511684613084565b61161161ffff60608301511684612e00565b6080810151611629906001600160401b031684612e3a565b01518154600160a01b600160e01b03191660a09190911b600160a01b600160e01b0316179055612858565b634e487b7160e01b600052600060045260246000fd5b634e487b7160e01b600052604160045260246000fd5b5061168a84612867565b506001015460a01c6001600160401b031681146114fd565b6000949194199060200360031b1b169285611433565b6116de906001600160f81b03196116cf82866130a3565b511660001a610d8482896130a3565b611419565b50600560ff8716106113a2565b6001906001600160f81b031961170682866130a3565b511660001a61171582876130a3565b53016112a9565b83356001600160401b03811161007557602091611740839260243691870101612133565b815201930192611267565b3461007557600036600319011261007557611764612290565b60175461177081612279565b61177d60405191826120f5565b818152601760009081526000805160206136fc833981519152929060208084015b8383106117b3576040518061042a87826121ef565b6002826001926117c2896127f7565b81520196019201919461179e565b3461007557602036600319011261007557600435600854811015611807576117f9602091612751565b90546040519160031b1c8152f35b6044906040519063295f44f760e21b8252600060048301526024820152fd5b346100755760003660031901126100755761183f612290565b6016546001600160801b0381169081156118cf576000808084819461186f8260018060801b03199260801c6127ca565b60801b16601655600d546001600160a01b03165af161188c612787565b501561189457005b60405162461bcd60e51b8152602060048201526013602482015272119959481d1c985b9cd9995c8819985a5b1959606a1b6044820152606490fd5b60405162461bcd60e51b81526020600482015260136024820152724e6f206665657320746f20776974686472617760681b6044820152606490fd5b346100755761005b61191b3661217a565b9060405192611929846120bf565b600084526125ce565b346100755760003660031901126100755761194b612290565b61042a6107af47613488565b34610075576060366003190112610075576119706121e0565b611978612290565b600435600f5560ff8019601054169115151617601055604435601155600080f35b34610075576040366003190112610075576119b2612025565b602435906119bf816122bc565b8210156119f25760018060a01b031660005260066020526040600020906000526020526020604060002054604051908152f35b611a0e60405192839263295f44f760e21b8452600484016121c5565b0390fd5b3461007557611a20366121af565b6000918252600c6020526040909120546001600160a01b03808216929160a01c908315611a71575b5061271091611a60916001600160601b0316906127b7565b049061042a604051928392836121c5565b600b54908116935060a01c9050612710611a48565b346100755761005b611a973661217a565b9161232f565b34610075576000366003190112610075576000610100604051611abf8161206c565b8281528260208201528260408201528260608201528260808201528260a08201528260c08201528260e08201520152611af6612290565b610120604051611b058161206c565b6013549060018060401b038216815260018060801b038260401c1660208201528160c01c604082015263ffffffff60145460018060801b038116606084015260801c16608082015260ff60155460018060801b03811660a084015260801c1660c082015260165460018060801b03811660e083015260801c6101008201526040519160018060401b0316825260018060801b03602082015116602083015260018060401b03604082015116604083015260018060801b03606082015116606083015263ffffffff608082015116608083015260018060801b0360a08201511660a083015260ff60c08201511660c083015260018060801b0360e08201511660e083015261010060018060801b0391015116610100820152f35b3461007557600036600319011261007557600060408051611c3e81612051565b8281528260208201520152611c51612290565b6060604051611c5f81612051565b600f549081815260ff60105416602082019015158152604060115492019182526040519283525115156020830152516040820152f35b34610075576000366003190112610075576020600854604051908152f35b346100755760a036600319011261007557611ccc612025565b6001600160401b039060243582811161007557611ced903690600401612133565b9160443581811161007557611d06903690600401612133565b926064359182116100755761005b93611d26610cbf933690600401612133565b506019546001600160801b03808216956109aa928792611d4584612ac8565b6001600160801b0319909216911617601955612ae0565b3461007557604036600319011261007557611d75612025565b602435611d8181612716565b33151580611e30575b80611e03575b611deb576001600160a01b039283169282918491167f8c5be1e5ebec7d5bd14f71427d1e84f3dd0314c0f7b2291e5b200ac8c7c3b925600080a4600090815260046020526040902080546001600160a01b0319169091179055005b60405163a9fbf51f60e01b8152336004820152602490fd5b5060018060a01b038116600052600560205260406000203360005260205260ff6040600020541615611d90565b506001600160a01b038116331415611d8a565b3461007557602036600319011261007557600435611e6081612716565b506000526004602052602060018060a01b0360406000205416604051908152f35b3461007557600036600319011261007557604051600090600054611ea4816122f5565b8083526001918083169081156108015750600114611ecc5761042a836107af818703826120f5565b600080805260209450917f290decd9548b62a8d60345a988386fc84ba6bc95484008f6362f93160ef3e5635b828410611f11575050508101909101906107af8161079f565b8054858501870152928501928101611ef8565b34610075576020366003190112610075576004359063ffffffff60e01b82168092036100755760209163152a902d60e11b8114908115611f66575b5015158152f35b632483248360e11b811491508115611f80575b5083611f5f565b63780e9d6360e01b811491508115611f9a575b5083611f79565b6380ac58cd60e01b811491508115611fcc575b8115611fbb575b5083611f93565b6301ffc9a760e01b14905083611fb4565b635b5e139f60e01b81149150611fad565b60005b838110611ff05750506000910152565b8181015183820152602001611fe0565b9060209161201981518092818552858086019101611fdd565b601f01601f1916010190565b600435906001600160a01b038216820361007557565b602435906001600160a01b038216820361007557565b606081019081106001600160401b0382111761166a57604052565b61012081019081106001600160401b0382111761166a57604052565b60c081019081106001600160401b0382111761166a57604052565b61018081019081106001600160401b0382111761166a57604052565b602081019081106001600160401b0382111761166a57604052565b604081019081106001600160401b0382111761166a57604052565b601f909101601f19168101906001600160401b0382119082101761166a57604052565b6001600160401b03811161166a57601f01601f191660200190565b81601f820112156100755780359061214a82612118565b9261215860405194856120f5565b8284526020838301011161007557816000926020809301838601378301015290565b6060906003190112610075576001600160a01b0390600435828116810361007557916024359081168103610075579060443590565b6040906003190112610075576004359060243590565b6001600160a01b039091168152602081019190915260400190565b60243590811515820361007557565b60208082019080835283518092528060408094019401926000905b83821061221957505050505090565b845180518752808401516001600160401b03908116888601528183015161ffff908116898501526060808401519091169089015260808083015182169089015260a091820151169087015260c0909501949382019360019091019061220a565b6001600160401b03811161166a5760051b60200190565b600d546001600160a01b031633036122a457565b60405163118cdaa760e01b8152336004820152602490fd5b6001600160a01b031680156122dc57600052600360205260406000205490565b6040516322718ad960e21b815260006004820152602490fd5b90600182811c92168015612325575b602083101461230f57565b634e487b7160e01b600052602260045260246000fd5b91607f1691612304565b6001600160a01b03828116939184156125b557600094838652602095600287526040968488832054169633151580612529575b5087158015612509575b84845260038352898420805460010190558784526002835289842080546001600160a01b0319168617905587858a6000805160206136dc8339815191528780a41561249d5760085487845260098352898420819055600160401b811015612489576123f86123e18260018b9401600855612751565b819391549060031b91821b91600019901b19161790565b90555b838803612437575b5050505016928383036124165750505050565b6064945051926364283d7b60e01b8452600484015260248301526044820152fd5b612440906122bc565b6000198101939084116124755782916007918a9452600681528383208584528152878484205587835252205538808080612403565b634e487b7160e01b83526011600452602483fd5b634e487b7160e01b84526041600452602484fd5b8784146123fb576124ad886122bc565b878452600783528984205490898552600684528a8520918181036124e7575b5088855260078452848b8120558452825282898120556123fb565b8186528285528b862054818752808d8820558652600785528b862055386124cc565b612512886126f8565b88845260038352898420805460001901905561236c565b80612574575b1561253a5738612362565b888789612557576024915190637e27328960e01b82526004820152fd5b905163177e802f60e01b8152908190611a0e9033600484016121c5565b503388148015612599575b8061252f57508683526004825233868a852054161461252f565b5087835260058252888320338452825260ff898420541661257f565b604051633250574960e11b815260006004820152602490fd5b91906125db82828561232f565b803b6125e8575b50505050565b61262a60018060a01b0380921694604051938493630a85bd0160e11b968786523360048701521660248501526044840152608060648401526084830190612000565b03906020816000938185885af1908290826126a9575b5050612678578261264f612787565b805191908261267157604051633250574960e11b815260048101839052602490fd5b9050602001fd5b6001600160e01b031916036126915750388080806125e2565b60249060405190633250574960e11b82526004820152fd5b909192506020813d82116126f0575b816126c5602093836120f5565b810103126126ec5751906001600160e01b0319821682036126e95750903880612640565b80fd5b5080fd5b3d91506126b8565b600090815260046020526040902080546001600160a01b0319169055565b6000818152600260205260409020546001600160a01b0316908115612739575090565b60249060405190637e27328960e01b82526004820152fd5b600854811015610d8f57600860005260206000200190600090565b600e54811015610d8f57600e60005260206000200190600090565b3d156127b2573d9061279882612118565b916127a660405193846120f5565b82523d6000602084013e565b606090565b818102929181159184041417156104b757565b6001600160801b0391821690821601919082116104b757565b8051821015610d8f5760209160051b010190565b9060405161280481612088565b60a06001829480548452015460018060401b0390818116602085015261ffff808260401c1660408601528160501c166060850152818160601c166080850152821c16910152565b919082039182116104b757565b60001981146104b75760010190565b601754811015610d8f57601760005260206000209060011b0190600090565b6001600160401b0391821690821601919082116104b757565b33600090815260126020526040812080546001600160801b0319166001600160801b0393841617815560019081018054929392909163ffffffff90818316018181116129645763ffffffff199092169116179055601354916001600160401b03908184166001019082821161295057501690600160401b600160c01b039061293b90348116906001600160401b03198616851760401c166127ca565b60401b169160018060c01b0319161717601355565b634e487b7160e01b81526011600452602490fd5b634e487b7160e01b86526011600452602486fd5b60405190612985826120da565b600782526677656c636f6d6560c81b6020830152565b604051906129a8826120da565b60018252600160fd1b6020830152565b3360009081526012602052604081206001808201805463ffffffff1916909117905580546001600160801b03199081166001600160801b0394851617909155600e5491939291600160401b811015612ab45793610cbf91612a23866001612ab2979801600e5561276c565b81549060031b9033821b9160018060a01b03901b191617905583600e54163383526012602052600260408420019082825416179055612a60612978565b90612a6961299b565b90612a72612978565b506019549086821696612a8488612ac8565b16911617601955612a958533612ae0565b612a9d61299b565b9160405193612aab856120bf565b84526131cc565b565b634e487b7160e01b85526041600452602485fd5b6001600160801b039081169081146104b75760010190565b6001600160a01b039080821680156125b557600093808552602090600282526040948587205416938415948486159687612c8c575b818a5260038652888a2080546001019055848a5260028652888a2080546001600160a01b031916831790558482846000805160206136dc8339815191528d80a415612c1e575060085483895260098552878920819055600160401b811015612c0a579083612b8d6123e18460018a9601600855612751565b90555b03612bb9575b50505050612ba2575050565b6024925051906339e3563760e11b82526004820152fd5b612bc2906122bc565b600019810193908411612bf65786526006825284862083875282528486208190558552600790528284205538808080612b96565b634e487b7160e01b87526011600452602487fd5b634e487b7160e01b89526041600452602489fd5b90808214612b9057612c2f816122bc565b848a5260078652888a205490828b5260068752898b2091818103612c69575b50858b52600787528a8a8120558a5285528888812055612b90565b818c528288528a8c2054818d528b8d208190558c52600788528a8c205538612c4e565b612c95856126f8565b828a5260038652888a208054600019019055612b15565b6000818152600a60209081526040822084519495949193929091906001600160401b038211612dec57612cdf83546122f5565b601f8111612da9575b508490601f8311600114612d37579060008051602061371c833981519152969783612d2c575b50508160011b916000199060031b1c19161790555b604051908152a1565b015190503880612d0e565b9196601f198816848452868420935b818110612d92575091600193918960008051602061371c833981519152999a9410612d79575b505050811b019055612d23565b015160001960f88460031b161c19169055388080612d6c565b929387600181928786015181550195019301612d46565b838252858220601f840160051c810191878510612de2575b601f0160051c01905b818110612dd75750612ce8565b828155600101612dca565b9091508190612dc1565b634e487b7160e01b81526041600452602490fd5b805461ffff60501b191660509290921b61ffff60501b16919091179055565b6001600160401b03908116600a02908116919082036104b757565b8054600160601b600160a01b03191660609290921b600160601b600160a01b0316919091179055565b90612e6d82612118565b612e7a60405191826120f5565b8281528092612e8b601f1991612118565b0190602036910137565b6000908072184f03e93ff9f4daa797ed6e38ed64bf6a1f0160401b80821015612fc4575b506904ee2d6d415b85acef8160201b80831015612fb5575b50662386f26fc1000080831015612fa6575b506305f5e10080831015612f97575b5061271080831015612f88575b506064821015612f78575b600a80921015612f6e575b600190816021612f26828701612e63565b95860101905b612f38575b5050505090565b600019019083906f181899199a1a9b1b9c1cb0b131b232b360811b8282061a835304918215612f6957919082612f2c565b612f31565b9160010191612f15565b9190606460029104910191612f0a565b60049193920491019138612eff565b60089193920491019138612ef2565b60109193920491019138612ee3565b60209193920491019138612ed1565b604093508104915038612eb9565b60405190612fdf826120da565b60068252657468616e6b7360d01b6020830152565b612ab2612fff612fd2565b610cbf6040519161300f83612051565b602383527f45766572797468696e672077696c6c206265207573656420666f72206368617260208401526269747960e81b604084015261304d612fd2565b506019546001600160801b0380821694919061306886612ac8565b6001600160801b03199092169116176019556109aa8433612ae0565b805461ffff60401b191660409290921b61ffff60401b16919091179055565b908151811015610d8f570160200190565b92916130c86130c3838361284b565b612e63565b91805b8281106130da57509193505050565b61310b906001600160f81b03196130f182896130a3565b5116610d84613100858461284b565b9160001a91876130a3565b6130cb565b60ff602f199116019060ff82116104b757565b906000809283915b815183101561318757600a61ffff809216028181169081036129645760ff61315f61315686866130a3565b5160f81c613110565b16019081116131735760019092019161312b565b634e487b7160e01b85526011600452602485fd5b93505050565b906000805b83518210156131c7576131bf6131a9600192612e1f565b60ff6131b861315686896130a3565b1690612886565b910190613192565b925050565b613336603d926132d5605c6133809661337098604051948592602098607b60f81b8a86015267113730b6b2911d1160c11b6021860152613215815180928c602989019101611fdd565b84019161088b60f21b928360298201526e113232b9b1b934b83a34b7b7111d1160891b602b820152613250825180938d603a85019101611fdd565b0182603a820152691134b6b0b3b2911d101160b11b603c82015261327d825180938c604685019101611fdd565b01906046820152711132bc3a32b93730b62fb634b735911d101160711b60488201526132b2825180938a605a85019101611fdd565b01601160f91b605a820152607d60f81b605b82015203603c8101845201826120f5565b604051906132e282612051565b604082527f4142434445464748494a4b4c4d4e4f505152535455565758595a616263646566848301527f6768696a6b6c6d6e6f707172737475767778797a303132333435363738392b2f6040830152613383565b60405194827f646174613a6170706c69636174696f6e2f6a736f6e3b6261736536342c000000879485015282519283918686019101611fdd565b810103601d8101845201826120f5565b90565b8051156134665780516002918282018092116104b7576003918290046001600160fe1b03811681036104b7576133bc908495941b612e63565b936020850193829183518401906020820192835194600085525b838110613415575050505052510680600114613402576002146133f7575090565b603d90600019015390565b50603d9081600019820153600119015390565b87600491999293949901918251600190603f9082828260121c16880101518453828282600c1c16880101518385015382828260061c16880101518885015316850101518982015301979291906133d6565b5050604051613474816120bf565b6000815290565b80156104b7576000190190565b61349e670de0b6b3a7640000808306920461361d565b90801561361957906040516134b2816120da565b60128152602092833681840137601290815b6135ce57505080515b8015158061358a575b156134e9576134e49061347b565b6134cd565b929091928015613584576134fc81612e63565b92600090815b83811061355a575050505061354b926133809260219260405195836135308895518092858089019101611fdd565b840191601760f91b8184015283519384918785019101611fdd565b010360018101845201826120f5565b61357f906001600160f81b031961357182856130a3565b5116841a610d8482896130a3565b613502565b50505090565b5060001981018181116135b957600360fc1b906001600160f81b0319906135b190856130a3565b5116146134d6565b60246000634e487b7160e01b81526011600452fd5b600a60309181810683018093116135b95760001984018481116135b9576136129360f81b6001600160f81b03191660001a9061360a90876130a3565b53049161347b565b90816134c4565b5090565b801561369d5780600081805b613685575061363781612e63565b925b61364257505090565b60001981019081116104b7578091600a91603083830681018091116104b75760f81b6001600160f81b03191660001a9061367c90866130a3565b53049081613639565b9150613692600a91612858565b910480839291613629565b506040516136aa816120da565b60018152600360fc1b60208201529056fe8be0079c531659141344cd1fd0a4f28419497f9722a3daafe3b4186f6b6457e0ddf252ad1be2c89b69c2b068fc378daa952ba7f163c4a11628f55a4df523b3efc624b66cc0138b8fabc209247f72d758e1cf3343756d543badbf24212bed8c15f8e1a15aba9398e019f0b49df1a4fde98ee17ae345cb5f6b5e2c27f5033e8ce7a2646970667358221220963bc7fe41db27e849010b0b20425cd56e38f5e23de7d7f4bf6899e4daa6d64a64736f6c63430008140033",
  "linkReferences": {},
  "deployedLinkReferences": {}
}