{
  "_format": "hh-sol-artifact-1",
  "contractName": "Archiary",
  "sourceName": "contracts/Archiary.sol",
  "abi": [
    {
      "inputs": [
        {
          "internalType": "uint256",
          "name": "_attemptMinimum",
          "type": "uint256"
        },
        {
          "internalType": "uint256",
          "name": "_multiplyToWei",
          "type": "uint256"
        }
      ],
      "stateMutability": "nonpayable",
      "type": "constructor"
    },
    {
      "inputs": [],
      "name": "Active_false",
      "type": "error"
    },
    {
      "inputs": [],
      "name": "Amount_is_too_low_for_fee",
      "type": "error"
    },
    {
      "inputs": [],
      "name": "Clues_no_or_low_data",
      "type": "error"
    },
    {
      "inputs": [],
      "name": "Cooldown_limit",
      "type": "error"
    },
    {
      "inputs": [
        {
          "internalType": "uint256",
          "name": "numerator",
          "type": "uint256"
        },
        {
          "internalType": "uint256",
          "name": "denominator",
          "type": "uint256"
        }
      ],
      "name": "ERC2981InvalidDefaultRoyalty",
      "type": "error"
    },
    {
      "inputs": [
        {
          "internalType": "address",
          "name": "receiver",
          "type": "address"
        }
      ],
      "name": "ERC2981InvalidDefaultRoyaltyReceiver",
      "type": "error"
    },
    {
      "inputs": [
        {
          "internalType": "uint256",
          "name": "tokenId",
          "type": "uint256"
        },
        {
          "internalType": "uint256",
          "name": "numerator",
          "type": "uint256"
        },
        {
          "internalType": "uint256",
          "name": "denominator",
          "type": "uint256"
        }
      ],
      "name": "ERC2981InvalidTokenRoyalty",
      "type": "error"
    },
    {
      "inputs": [
        {
          "internalType": "uint256",
          "name": "tokenId",
          "type": "uint256"
        },
        {
          "internalType": "address",
          "name": "receiver",
          "type": "address"
        }
      ],
      "name": "ERC2981InvalidTokenRoyaltyReceiver",
      "type": "error"
    },
    {
      "inputs": [],
      "name": "ERC721EnumerableForbiddenBatchMint",
      "type": "error"
    },
    {
      "inputs": [
        {
          "internalType": "address",
          "name": "sender",
          "type": "address"
        },
        {
          "internalType": "uint256",
          "name": "tokenId",
          "type": "uint256"
        },
        {
          "internalType": "address",
          "name": "owner",
          "type": "address"
        }
      ],
      "name": "ERC721IncorrectOwner",
      "type": "error"
    },
    {
      "inputs": [
        {
          "internalType": "address",
          "name": "operator",
          "type": "address"
        },
        {
          "internalType": "uint256",
          "name": "tokenId",
          "type": "uint256"
        }
      ],
      "name": "ERC721InsufficientApproval",
      "type": "error"
    },
    {
      "inputs": [
        {
          "internalType": "address",
          "name": "approver",
          "type": "address"
        }
      ],
      "name": "ERC721InvalidApprover",
      "type": "error"
    },
    {
      "inputs": [
        {
          "internalType": "address",
          "name": "operator",
          "type": "address"
        }
      ],
      "name": "ERC721InvalidOperator",
      "type": "error"
    },
    {
      "inputs": [
        {
          "internalType": "address",
          "name": "owner",
          "type": "address"
        }
      ],
      "name": "ERC721InvalidOwner",
      "type": "error"
    },
    {
      "inputs": [
        {
          "internalType": "address",
          "name": "receiver",
          "type": "address"
        }
      ],
      "name": "ERC721InvalidReceiver",
      "type": "error"
    },
    {
      "inputs": [
        {
          "internalType": "address",
          "name": "sender",
          "type": "address"
        }
      ],
      "name": "ERC721InvalidSender",
      "type": "error"
    },
    {
      "inputs": [
        {
          "internalType": "uint256",
          "name": "tokenId",
          "type": "uint256"
        }
      ],
      "name": "ERC721NonexistentToken",
      "type": "error"
    },
    {
      "inputs": [
        {
          "internalType": "address",
          "name": "owner",
          "type": "address"
        },
        {
          "internalType": "uint256",
          "name": "index",
          "type": "uint256"
        }
      ],
      "name": "ERC721OutOfBoundsIndex",
      "type": "error"
    },
    {
      "inputs": [],
      "name": "NotAllowed",
      "type": "error"
    },
    {
      "inputs": [
        {
          "internalType": "address",
          "name": "owner",
          "type": "address"
        }
      ],
      "name": "OwnableInvalidOwner",
      "type": "error"
    },
    {
      "inputs": [
        {
          "internalType": "address",
          "name": "account",
          "type": "address"
        }
      ],
      "name": "OwnableUnauthorizedAccount",
      "type": "error"
    },
    {
      "inputs": [],
      "name": "Payment_refund_to_sender_failed",
      "type": "error"
    },
    {
      "inputs": [],
      "name": "Payment_to_owner_failed",
      "type": "error"
    },
    {
      "inputs": [],
      "name": "Payment_to_winnerr_failed",
      "type": "error"
    },
    {
      "inputs": [],
      "name": "Winner_no_longer_play",
      "type": "error"
    },
    {
      "anonymous": false,
      "inputs": [
        {
          "indexed": true,
          "internalType": "address",
          "name": "owner",
          "type": "address"
        },
        {
          "indexed": true,
          "internalType": "address",
          "name": "approved",
          "type": "address"
        },
        {
          "indexed": true,
          "internalType": "uint256",
          "name": "tokenId",
          "type": "uint256"
        }
      ],
      "name": "Approval",
      "type": "event"
    },
    {
      "anonymous": false,
      "inputs": [
        {
          "indexed": true,
          "internalType": "address",
          "name": "owner",
          "type": "address"
        },
        {
          "indexed": true,
          "internalType": "address",
          "name": "operator",
          "type": "address"
        },
        {
          "indexed": false,
          "internalType": "bool",
          "name": "approved",
          "type": "bool"
        }
      ],
      "name": "ApprovalForAll",
      "type": "event"
    },
    {
      "anonymous": false,
      "inputs": [
        {
          "indexed": false,
          "internalType": "uint256",
          "name": "_fromTokenId",
          "type": "uint256"
        },
        {
          "indexed": false,
          "internalType": "uint256",
          "name": "_toTokenId",
          "type": "uint256"
        }
      ],
      "name": "BatchMetadataUpdate",
      "type": "event"
    },
    {
      "anonymous": false,
      "inputs": [
        {
          "indexed": false,
          "internalType": "uint256",
          "name": "_tokenId",
          "type": "uint256"
        }
      ],
      "name": "MetadataUpdate",
      "type": "event"
    },
    {
      "anonymous": false,
      "inputs": [
        {
          "indexed": true,
          "internalType": "address",
          "name": "previousOwner",
          "type": "address"
        },
        {
          "indexed": true,
          "internalType": "address",
          "name": "newOwner",
          "type": "address"
        }
      ],
      "name": "OwnershipTransferred",
      "type": "event"
    },
    {
      "anonymous": false,
      "inputs": [
        {
          "indexed": true,
          "internalType": "address",
          "name": "from",
          "type": "address"
        },
        {
          "indexed": true,
          "internalType": "address",
          "name": "to",
          "type": "address"
        },
        {
          "indexed": true,
          "internalType": "uint256",
          "name": "tokenId",
          "type": "uint256"
        }
      ],
      "name": "Transfer",
      "type": "event"
    },
    {
      "inputs": [
        {
          "internalType": "address",
          "name": "to",
          "type": "address"
        },
        {
          "internalType": "uint256",
          "name": "tokenId",
          "type": "uint256"
        }
      ],
      "name": "approve",
      "outputs": [],
      "stateMutability": "nonpayable",
      "type": "function"
    },
    {
      "inputs": [
        {
          "internalType": "address",
          "name": "owner",
          "type": "address"
        }
      ],
      "name": "balanceOf",
      "outputs": [
        {
          "internalType": "uint256",
          "name": "",
          "type": "uint256"
        }
      ],
      "stateMutability": "view",
      "type": "function"
    },
    {
      "inputs": [
        {
          "components": [
            {
              "internalType": "bytes32",
              "name": "clue",
              "type": "bytes32"
            },
            {
              "internalType": "uint64",
              "name": "price",
              "type": "uint64"
            },
            {
              "internalType": "uint64",
              "name": "clueparametr0",
              "type": "uint64"
            },
            {
              "internalType": "uint64",
              "name": "clueparametr1",
              "type": "uint64"
            },
            {
              "internalType": "uint32",
              "name": "clueparametr2",
              "type": "uint32"
            },
            {
              "internalType": "uint16",
              "name": "clueparametr3",
              "type": "uint16"
            },
            {
              "internalType": "uint8",
              "name": "clueparametr4",
              "type": "uint8"
            }
          ],
          "internalType": "struct CluesList[]",
          "name": "vstup",
          "type": "tuple[]"
        }
      ],
      "name": "changeAddItems",
      "outputs": [],
      "stateMutability": "nonpayable",
      "type": "function"
    },
    {
      "inputs": [
        {
          "internalType": "uint256",
          "name": "_attemptMinimum",
          "type": "uint256"
        },
        {
          "internalType": "bool",
          "name": "_active",
          "type": "bool"
        },
        {
          "internalType": "uint256",
          "name": "_multiplyToWei",
          "type": "uint256"
        }
      ],
      "name": "config",
      "outputs": [],
      "stateMutability": "nonpayable",
      "type": "function"
    },
    {
      "inputs": [],
      "name": "deleteAll",
      "outputs": [],
      "stateMutability": "nonpayable",
      "type": "function"
    },
    {
      "inputs": [
        {
          "internalType": "uint64",
          "name": "zaznam",
          "type": "uint64"
        }
      ],
      "name": "deleteItem",
      "outputs": [],
      "stateMutability": "nonpayable",
      "type": "function"
    },
    {
      "inputs": [
        {
          "internalType": "uint256",
          "name": "number",
          "type": "uint256"
        }
      ],
      "name": "fnc",
      "outputs": [
        {
          "internalType": "uint256",
          "name": "",
          "type": "uint256"
        }
      ],
      "stateMutability": "pure",
      "type": "function"
    },
    {
      "inputs": [
        {
          "internalType": "uint256",
          "name": "number",
          "type": "uint256"
        }
      ],
      "name": "fnd",
      "outputs": [
        {
          "internalType": "uint256",
          "name": "",
          "type": "uint256"
        }
      ],
      "stateMutability": "pure",
      "type": "function"
    },
    {
      "inputs": [
        {
          "internalType": "bytes32",
          "name": "data",
          "type": "bytes32"
        }
      ],
      "name": "fsc",
      "outputs": [
        {
          "internalType": "bytes32",
          "name": "",
          "type": "bytes32"
        }
      ],
      "stateMutability": "pure",
      "type": "function"
    },
    {
      "inputs": [
        {
          "internalType": "bytes32",
          "name": "data",
          "type": "bytes32"
        }
      ],
      "name": "fsd",
      "outputs": [
        {
          "internalType": "bytes32",
          "name": "",
          "type": "bytes32"
        }
      ],
      "stateMutability": "pure",
      "type": "function"
    },
    {
      "inputs": [],
      "name": "getAllPlayers",
      "outputs": [
        {
          "internalType": "address[]",
          "name": "",
          "type": "address[]"
        }
      ],
      "stateMutability": "view",
      "type": "function"
    },
    {
      "inputs": [],
      "name": "getAllUsersData",
      "outputs": [
        {
          "components": [
            {
              "internalType": "uint64",
              "name": "attemptCounter",
              "type": "uint64"
            },
            {
              "internalType": "uint128",
              "name": "attemptSum",
              "type": "uint128"
            },
            {
              "internalType": "uint64",
              "name": "refundCounter",
              "type": "uint64"
            },
            {
              "internalType": "uint128",
              "name": "refundSum",
              "type": "uint128"
            },
            {
              "internalType": "uint32",
              "name": "winCounter",
              "type": "uint32"
            },
            {
              "internalType": "uint128",
              "name": "winSum",
              "type": "uint128"
            },
            {
              "internalType": "uint8",
              "name": "feeCounter",
              "type": "uint8"
            },
            {
              "internalType": "uint128",
              "name": "feeSumPartial",
              "type": "uint128"
            },
            {
              "internalType": "uint128",
              "name": "feeSum",
              "type": "uint128"
            }
          ],
          "internalType": "struct AllUsersData",
          "name": "data",
          "type": "tuple"
        }
      ],
      "stateMutability": "view",
      "type": "function"
    },
    {
      "inputs": [
        {
          "internalType": "uint256",
          "name": "tokenId",
          "type": "uint256"
        }
      ],
      "name": "getApproved",
      "outputs": [
        {
          "internalType": "address",
          "name": "",
          "type": "address"
        }
      ],
      "stateMutability": "view",
      "type": "function"
    },
    {
      "inputs": [],
      "name": "getBalanceInEth",
      "outputs": [
        {
          "internalType": "string",
          "name": "",
          "type": "string"
        }
      ],
      "stateMutability": "view",
      "type": "function"
    },
    {
      "inputs": [],
      "name": "getCluesAll",
      "outputs": [
        {
          "components": [
            {
              "internalType": "bytes32",
              "name": "clue",
              "type": "bytes32"
            },
            {
              "internalType": "uint64",
              "name": "price",
              "type": "uint64"
            },
            {
              "internalType": "uint64",
              "name": "clueparametr0",
              "type": "uint64"
            },
            {
              "internalType": "uint64",
              "name": "clueparametr1",
              "type": "uint64"
            },
            {
              "internalType": "uint32",
              "name": "clueparametr2",
              "type": "uint32"
            },
            {
              "internalType": "uint16",
              "name": "clueparametr3",
              "type": "uint16"
            },
            {
              "internalType": "uint8",
              "name": "clueparametr4",
              "type": "uint8"
            }
          ],
          "internalType": "struct CluesList[]",
          "name": "",
          "type": "tuple[]"
        }
      ],
      "stateMutability": "view",
      "type": "function"
    },
    {
      "inputs": [
        {
          "internalType": "uint256",
          "name": "start",
          "type": "uint256"
        },
        {
          "internalType": "uint256",
          "name": "count",
          "type": "uint256"
        }
      ],
      "name": "getCluesPage",
      "outputs": [
        {
          "components": [
            {
              "internalType": "bytes32",
              "name": "clue",
              "type": "bytes32"
            },
            {
              "internalType": "uint64",
              "name": "price",
              "type": "uint64"
            },
            {
              "internalType": "uint64",
              "name": "clueparametr0",
              "type": "uint64"
            },
            {
              "internalType": "uint64",
              "name": "clueparametr1",
              "type": "uint64"
            },
            {
              "internalType": "uint32",
              "name": "clueparametr2",
              "type": "uint32"
            },
            {
              "internalType": "uint16",
              "name": "clueparametr3",
              "type": "uint16"
            },
            {
              "internalType": "uint8",
              "name": "clueparametr4",
              "type": "uint8"
            }
          ],
          "internalType": "struct CluesList[]",
          "name": "",
          "type": "tuple[]"
        }
      ],
      "stateMutability": "view",
      "type": "function"
    },
    {
      "inputs": [],
      "name": "getMinMessageAttempt",
      "outputs": [
        {
          "internalType": "uint256",
          "name": "",
          "type": "uint256"
        }
      ],
      "stateMutability": "view",
      "type": "function"
    },
    {
      "inputs": [],
      "name": "getRebusData",
      "outputs": [
        {
          "components": [
            {
              "internalType": "uint256",
              "name": "attemptMinimum",
              "type": "uint256"
            },
            {
              "internalType": "bool",
              "name": "active",
              "type": "bool"
            },
            {
              "internalType": "uint256",
              "name": "multiplyToWei",
              "type": "uint256"
            }
          ],
          "internalType": "struct RebusData",
          "name": "",
          "type": "tuple"
        }
      ],
      "stateMutability": "view",
      "type": "function"
    },
    {
      "inputs": [],
      "name": "getUserDataOfAll",
      "outputs": [
        {
          "components": [
            {
              "internalType": "uint128",
              "name": "attemptSum",
              "type": "uint128"
            },
            {
              "internalType": "uint128",
              "name": "winSum",
              "type": "uint128"
            },
            {
              "internalType": "uint32",
              "name": "attemptCounter",
              "type": "uint32"
            },
            {
              "internalType": "uint32",
              "name": "messageCounter",
              "type": "uint32"
            },
            {
              "internalType": "uint16",
              "name": "returnDepositMinimum",
              "type": "uint16"
            },
            {
              "internalType": "uint16",
              "name": "returnDepositMaximum",
              "type": "uint16"
            },
            {
              "internalType": "uint16",
              "name": "depositFee",
              "type": "uint16"
            },
            {
              "internalType": "uint16",
              "name": "clueLast",
              "type": "uint16"
            },
            {
              "internalType": "uint8",
              "name": "winCounter",
              "type": "uint8"
            },
            {
              "internalType": "uint128",
              "name": "initialized",
              "type": "uint128"
            },
            {
              "internalType": "bool",
              "name": "cluesGeneratedOnly",
              "type": "bool"
            },
            {
              "internalType": "bool",
              "name": "cluesRandom",
              "type": "bool"
            }
          ],
          "internalType": "struct UserData[]",
          "name": "",
          "type": "tuple[]"
        }
      ],
      "stateMutability": "view",
      "type": "function"
    },
    {
      "inputs": [
        {
          "internalType": "address",
          "name": "owner",
          "type": "address"
        },
        {
          "internalType": "address",
          "name": "operator",
          "type": "address"
        }
      ],
      "name": "isApprovedForAll",
      "outputs": [
        {
          "internalType": "bool",
          "name": "",
          "type": "bool"
        }
      ],
      "stateMutability": "view",
      "type": "function"
    },
    {
      "inputs": [
        {
          "internalType": "string",
          "name": "_from",
          "type": "string"
        },
        {
          "internalType": "string",
          "name": "_message",
          "type": "string"
        },
        {
          "internalType": "bytes32",
          "name": "_add",
          "type": "bytes32"
        }
      ],
      "name": "messageToOwner",
      "outputs": [],
      "stateMutability": "payable",
      "type": "function"
    },
    {
      "inputs": [
        {
          "internalType": "address",
          "name": "_to",
          "type": "address"
        },
        {
          "internalType": "string",
          "name": "_nftName",
          "type": "string"
        },
        {
          "internalType": "string",
          "name": "_nftDesc",
          "type": "string"
        },
        {
          "internalType": "string",
          "name": "_nftImage",
          "type": "string"
        },
        {
          "internalType": "bytes32",
          "name": "_external_url",
          "type": "bytes32"
        }
      ],
      "name": "mintSimpleNFT",
      "outputs": [],
      "stateMutability": "nonpayable",
      "type": "function"
    },
    {
      "inputs": [],
      "name": "name",
      "outputs": [
        {
          "internalType": "string",
          "name": "",
          "type": "string"
        }
      ],
      "stateMutability": "view",
      "type": "function"
    },
    {
      "inputs": [],
      "name": "nextTokenId",
      "outputs": [
        {
          "internalType": "uint128",
          "name": "",
          "type": "uint128"
        }
      ],
      "stateMutability": "view",
      "type": "function"
    },
    {
      "inputs": [],
      "name": "owner",
      "outputs": [
        {
          "internalType": "address",
          "name": "",
          "type": "address"
        }
      ],
      "stateMutability": "view",
      "type": "function"
    },
    {
      "inputs": [
        {
          "internalType": "uint256",
          "name": "tokenId",
          "type": "uint256"
        }
      ],
      "name": "ownerOf",
      "outputs": [
        {
          "internalType": "address",
          "name": "",
          "type": "address"
        }
      ],
      "stateMutability": "view",
      "type": "function"
    },
    {
      "inputs": [],
      "name": "renounceOwnership",
      "outputs": [],
      "stateMutability": "nonpayable",
      "type": "function"
    },
    {
      "inputs": [
        {
          "internalType": "uint256",
          "name": "tokenId",
          "type": "uint256"
        },
        {
          "internalType": "uint256",
          "name": "salePrice",
          "type": "uint256"
        }
      ],
      "name": "royaltyInfo",
      "outputs": [
        {
          "internalType": "address",
          "name": "receiver",
          "type": "address"
        },
        {
          "internalType": "uint256",
          "name": "amount",
          "type": "uint256"
        }
      ],
      "stateMutability": "view",
      "type": "function"
    },
    {
      "inputs": [
        {
          "internalType": "address",
          "name": "from",
          "type": "address"
        },
        {
          "internalType": "address",
          "name": "to",
          "type": "address"
        },
        {
          "internalType": "uint256",
          "name": "tokenId",
          "type": "uint256"
        }
      ],
      "name": "safeTransferFrom",
      "outputs": [],
      "stateMutability": "nonpayable",
      "type": "function"
    },
    {
      "inputs": [
        {
          "internalType": "address",
          "name": "from",
          "type": "address"
        },
        {
          "internalType": "address",
          "name": "to",
          "type": "address"
        },
        {
          "internalType": "uint256",
          "name": "tokenId",
          "type": "uint256"
        },
        {
          "internalType": "bytes",
          "name": "data",
          "type": "bytes"
        }
      ],
      "name": "safeTransferFrom",
      "outputs": [],
      "stateMutability": "nonpayable",
      "type": "function"
    },
    {
      "inputs": [
        {
          "internalType": "string",
          "name": "_from",
          "type": "string"
        },
        {
          "internalType": "string",
          "name": "_name",
          "type": "string"
        },
        {
          "internalType": "uint64",
          "name": "_record",
          "type": "uint64"
        }
      ],
      "name": "sendGet",
      "outputs": [],
      "stateMutability": "payable",
      "type": "function"
    },
    {
      "inputs": [
        {
          "internalType": "uint256",
          "name": "_record",
          "type": "uint256"
        }
      ],
      "name": "sendGetPrice",
      "outputs": [
        {
          "internalType": "uint256",
          "name": "",
          "type": "uint256"
        }
      ],
      "stateMutability": "view",
      "type": "function"
    },
    {
      "inputs": [
        {
          "internalType": "bool",
          "name": "_state",
          "type": "bool"
        }
      ],
      "name": "setActive",
      "outputs": [],
      "stateMutability": "nonpayable",
      "type": "function"
    },
    {
      "inputs": [
        {
          "internalType": "address",
          "name": "operator",
          "type": "address"
        },
        {
          "internalType": "bool",
          "name": "approved",
          "type": "bool"
        }
      ],
      "name": "setApprovalForAll",
      "outputs": [],
      "stateMutability": "nonpayable",
      "type": "function"
    },
    {
      "inputs": [
        {
          "internalType": "bytes4",
          "name": "interfaceId",
          "type": "bytes4"
        }
      ],
      "name": "supportsInterface",
      "outputs": [
        {
          "internalType": "bool",
          "name": "",
          "type": "bool"
        }
      ],
      "stateMutability": "view",
      "type": "function"
    },
    {
      "inputs": [],
      "name": "symbol",
      "outputs": [
        {
          "internalType": "string",
          "name": "",
          "type": "string"
        }
      ],
      "stateMutability": "view",
      "type": "function"
    },
    {
      "inputs": [
        {
          "internalType": "uint256",
          "name": "index",
          "type": "uint256"
        }
      ],
      "name": "tokenByIndex",
      "outputs": [
        {
          "internalType": "uint256",
          "name": "",
          "type": "uint256"
        }
      ],
      "stateMutability": "view",
      "type": "function"
    },
    {
      "inputs": [
        {
          "internalType": "address",
          "name": "owner",
          "type": "address"
        },
        {
          "internalType": "uint256",
          "name": "index",
          "type": "uint256"
        }
      ],
      "name": "tokenOfOwnerByIndex",
      "outputs": [
        {
          "internalType": "uint256",
          "name": "",
          "type": "uint256"
        }
      ],
      "stateMutability": "view",
      "type": "function"
    },
    {
      "inputs": [
        {
          "internalType": "uint256",
          "name": "tokenId",
          "type": "uint256"
        }
      ],
      "name": "tokenURI",
      "outputs": [
        {
          "internalType": "string",
          "name": "",
          "type": "string"
        }
      ],
      "stateMutability": "view",
      "type": "function"
    },
    {
      "inputs": [],
      "name": "totalSupply",
      "outputs": [
        {
          "internalType": "uint256",
          "name": "",
          "type": "uint256"
        }
      ],
      "stateMutability": "view",
      "type": "function"
    },
    {
      "inputs": [
        {
          "internalType": "address",
          "name": "from",
          "type": "address"
        },
        {
          "internalType": "address",
          "name": "to",
          "type": "address"
        },
        {
          "internalType": "uint256",
          "name": "tokenId",
          "type": "uint256"
        }
      ],
      "name": "transferFrom",
      "outputs": [],
      "stateMutability": "nonpayable",
      "type": "function"
    },
    {
      "inputs": [
        {
          "internalType": "address",
          "name": "newOwner",
          "type": "address"
        }
      ],
      "name": "transferOwnership",
      "outputs": [],
      "stateMutability": "nonpayable",
      "type": "function"
    },
    {
      "inputs": [],
      "name": "withdrawAll",
      "outputs": [],
      "stateMutability": "nonpayable",
      "type": "function"
    },
    {
      "inputs": [],
      "name": "withdrawFees",
      "outputs": [],
      "stateMutability": "nonpayable",
      "type": "function"
    },
    {
      "stateMutability": "payable",
      "type": "receive"
    }
  ],
  "bytecode": "0x6080346200044357601f9062004288906001600160401b03601f19388490038581018216840190838211858310176200042d57808591604097889485528339810103126200044357825190602080940151916200005b62000448565b91600b83526a105c98da1a585c9e53919560aa1b868401526200007d62000448565b976008895267415243484941525960c01b878a0152835198868a116200042d576000998a54956001968781811c9116801562000422575b8b8210146200040e57908185849311620003b8575b508a908d8684116001146200035657926200034a575b5050600019600383901b1c191690861b178a555b805192878411620003365785548681811c911680156200032b575b8a82101462000317579081848695949311620002c0575b50899284116001146200025f57508a9262000253575b5050600019600383901b1c191690831b1782555b33156200023b57600d8054336001600160a01b0319821681179092556001600160a01b03167f8be0079c531659141344cd1fd0a4f28419497f9722a3daafe3b4186f6b6457e08980a3601980546001600160801b031916905585516060810185811182821017620002275784918891825283815284888201520152600f5560ff19601054161760105560115582519083820190828210908211176200021357836101f4949550523381520152607d60a21b3317600b5551613e1f9081620004698239f35b634e487b7160e01b85526041600452602485fd5b634e487b7160e01b89526041600452602489fd5b8551631e4fbdf760e01b815260048101889052602490fd5b0151905038806200013b565b868c52898c20879590939291168c5b8b828210620002a957505084116200028f575b505050811b0182556200014f565b015160001960f88460031b161c1916905538808062000281565b83850151865589979095019493840193016200026e565b9091929350868c52898c208480870160051c8201928c88106200030d575b9187968a92969594930160051c01915b828110620002fe57505062000125565b8e8155879650899101620002ee565b92508192620002de565b634e487b7160e01b8c52602260045260248cfd5b90607f16906200010e565b634e487b7160e01b8b52604160045260248bfd5b015190503880620000df565b9190878a95168380528d80852094905b828210620003a0575050841162000386575b505050811b018a55620000f3565b015160001960f88460031b161c1916905538808062000378565b8385015186558c979095019493840193018e62000366565b9091508c80528a8d208580850160051c8201928d861062000404575b859493910160051c9091019089908f5b838210620003f557505050620000c9565b81558594508a91018f620003e4565b92508192620003d4565b634e487b7160e01b8d52602260045260248dfd5b90607f1690620000b4565b634e487b7160e01b600052604160045260246000fd5b600080fd5b60408051919082016001600160401b038111838210176200042d5760405256fe608080604052600436101561007a575b50361561001b57600080fd5b60ff60105416158061006b575b50336000908152601260205260409020600201546001600160801b03161561005d5761005334612fb5565b61005b6136f1565b005b6100663461309b565b610053565b6100755738610028565b600080fd5b60003560e01c90816301ffc9a71461265857508063032202fd146125cf57806306fdde031461252c578063081812fc146124ee578063095ea7b3146124075780631662ae361461235e57806318160ddd146123405780631a335761146122c957806322931cd91461214857806323b872dd146121315780632a55205a146120bd5780632f745c5914612044578063364980b3146120075780633f14531714611fc55780633f3309ca14611fa057806342842e0e14611f78578063476343ee14611e945780634c16440714611e245780634f6ccce714611dce578063544da4f414611cf25780635f650a6114611a655780636352211e14611a3557806370a0823114611a12578063715018a6146119c757806375794a3c1461199e578063853828b61461194e57806389a8ec2f146114905780638ce62689146112615780638da5cb5b1461123857806395d89b4114611173578063a14905e214611145578063a22cb465146110a0578063a688d10514611010578063abdee2641461026b578063acec338a14610fd7578063b88d4fde14610f78578063c87b56dd14610e8a578063d891c54114610e5d578063dfadebb114610c12578063e985e9c514610bbc578063eeb8d83d14610399578063efa1c482146102e6578063f2fde38b146102705763feb718fe1461026b573861000f565b6129df565b346100755760203660031901126100755761028961276d565b610291612a16565b6001600160a01b039081169081156102cd57600d80546001600160a01b03198116841790915516600080516020613d6a833981519152600080a3005b604051631e4fbdf760e01b815260006004820152602490fd5b34610075576000366003190112610075576102ff612a16565b60405180600e5480835260208093018091600e600052846000209060005b8682821061037c5786866103338288038361283d565b604051928392818401908285525180915260408401929160005b82811061035c57505050500390f35b83516001600160a01b03168552869550938101939281019260010161034d565b83546001600160a01b03168552909301926001928301920161031d565b34610075576020366003190112610075576004356001600160401b03811161007557366023820112156100755780600401356103d4816129ff565b916103e2604051938461283d565b818352602460e06020850193028201019036821161007557602401915b818310610b1c578361040f612a16565b60005b815181101561005b5760009060005b601754811015610b1557610434816134f5565b50600101546001600160401b03604091821c8116916104538588612f8c565b510151161461046a57610465906134e6565b610421565b60019250600160f91b61047d8386612f8c565b515118610489826134f5565b5060fd82901c600392831b1790556001600160401b0360408160206104ae878a612f8c565b51015116181660016104bf846134f5565b500180546001600160401b0319169091179055600160ff60c06104e28689612f8c565b51015116148015610afa575b8015610adf575b8015610ac4575b610a99575b600260ff60c06105118689612f8c565b51015116148015610a7e575b8015610a63575b8015610a48575b610a20575b60ff60c061053e8588612f8c565b51015116148015610a05575b80156109ea575b80156109cf575b6109a9575b61058460ff60c061056e8588612f8c565b51015116600161057d846134f5565b5001613807565b60018101809111610993575b6017548110156105fc57806105a76105d4926134f5565b50600101546001600160401b03604091821c8116916105c68689612f8c565b51015116146105d9576134e6565b610590565b60016105e4826134f5565b5001805460ff60f01b1916600960f01b1790556134e6565b50905b801580610977575b6107fd575b15806107e1575b610626575b610621906134e6565b610412565b600160f91b6106358284612f8c565b515118906001600160401b0360408160206106508588612f8c565b510151161816916001600160401b03604061066b8487612f8c565b5101511692606090839081906001600160401b038461068a848b612f8c565b510151169660809763ffffffff896106a2868d612f8c565b510151169061ffff8b6106b860a0988992612f8c565b510151169260ff8c6106cd60c0988992612f8c565b5101511694604051996106df8b6127d0565b8060fd1c9060031b178a5260208a015260408901528688015288870152838601528185015260178054600160401b8110156107cb57610723916001820190556134f5565b9490946107b5576107a561ffff60ff9461079b63ffffffff6106219b61079160016107ae9c89518155019a60018060401b0360208a01511660018060401b03198d5416178c5561077f60018060401b0360408b0151168d613843565b8801516001600160401b03168b613537565b8601511688613514565b8301511685613824565b01511690613807565b9050610618565b634e487b7160e01b600052600060045260246000fd5b634e487b7160e01b600052604160045260246000fd5b50600960ff60c06107f28486612f8c565b510151161415610613565b9060005b60175481101561097057610814816134f5565b5060ff60098160018094015460f01c1614610839575050610834906134e6565b610801565b819394509061057d61096b9392600160f91b610855888a612f8c565b515118610861856134f5565b50600382901b60fd9290921c9190911790556001600160401b03604081602061088a8b8d612f8c565b5101511618168361089a866134f5565b500180546001600160401b03191690911790556108d96001600160401b0360406108c48a8c612f8c565b51015116846108d2876134f5565b5001613843565b6109056001600160401b0360606108f08a8c612f8c565b51015116846108fe876134f5565b5001613537565b61092e63ffffffff60806109198a8c612f8c565b5101511684610927876134f5565b5001613514565b61095561ffff60a06109408a8c612f8c565b510151168461094e876134f5565b5001613824565b60c0610961888a612f8c565b51015116926134f5565b61060c565b509061060c565b50600960ff60c06109888587612f8c565b510151161415610607565b634e487b7160e01b600052601160045260246000fd5b6109ca61ffff60a06109bb8588612f8c565b51015116600161094e846134f5565b61055d565b50607b60ff60c06109e08588612f8c565b5101511614610558565b50601760ff60c06109fb8588612f8c565b5101511614610551565b50600d60ff60c0610a168588612f8c565b510151161461054a565b610a4363ffffffff6080610a348689612f8c565b510151166001610927856134f5565b610530565b50607b60ff60c0610a598689612f8c565b510151161461052b565b50601760ff60c0610a748689612f8c565b5101511614610524565b50600c60ff60c0610a8f8689612f8c565b510151161461051d565b610abf6001600160401b036060610ab08689612f8c565b5101511660016108fe856134f5565b610501565b50607b60ff60c0610ad58689612f8c565b51015116146104fc565b50600d60ff60c0610af08689612f8c565b51015116146104f5565b50600c60ff60c0610b0b8689612f8c565b51015116146104ee565b50906105ff565b60e0833603126100755760405190610b33826127d0565b83358252610b4360208501612711565b6020830152610b5460408501612711565b60408301526060610b66818601612711565b908301526080808501359063ffffffff821682036100755783015260a0808501359061ffff821682036100755783015260c090818501359260ff841684036100755760e0936020938201528152019201916103ff565b3461007557604036600319011261007557610bd561276d565b610bdd612783565b9060018060a01b03809116600052600560205260406000209116600052602052602060ff604060002054166040519015158152f35b3461007557610c2036612905565b6017549081831015610e2357610c369083612f7f565b90808211610e1b575b50610c4a82826137fa565b91610c54836129ff565b92610c62604051948561283d565b808452610c71601f19916129ff565b0160005b818110610dd3575050805b828110610c995760405180610c958682612945565b0390f35b80610ca6610dce926134f5565b5054600160f91b908060fd1b9060031c1718610ccb610cc585846137fa565b87612f8c565b5152610cd6816134f5565b506001908101546001600160401b039160ff91831660401883166020610d05610cff89886137fa565b8b612f8c565b5101528281610d13866134f5565b50015460401c166040610d29610cff89886137fa565b51015280610d36856134f5565b50015492608093841c166060610d4f610cff89886137fa565b51015280610d5c856134f5565b5001549263ffffffff60c094851c1690610d79610cff89886137fa565b51015261ffff81610d89866134f5565b50015460e01c1660a0610d9f610cff89886137fa565b510152610dab846134f5565b50015460f01c1690610dc6610dc086856137fa565b88612f8c565b5101526134e6565b610c80565b602090604051610de2816127d0565b6000815282600081830152600060408301526000606083015260006080830152600060a0830152600060c0830152828801015201610c75565b905082610c3f565b60405162461bcd60e51b81526020600482015260126024820152715374617274206f7574206f662072616e676560701b6044820152606490fd5b34610075576020366003190112610075576020600160f91b60043518604051908060fd1c9060031b178152f35b346100755760208060031936011261007557600435610ea881612e9c565b50600052600a8152604060002090604051918260008254610ec881612a7b565b93848452600191868382169182600014610f56575050600114610f17575b5050610ef49250038361283d565b6000604051610f0281612807565b52610c95604051928284938452830190612748565b85925060005281600020906000915b858310610f3e575050610ef493508201018580610ee6565b80548389018501528794508693909201918101610f26565b9250935050610ef494915060ff191682840152151560051b8201018580610ee6565b3461007557608036600319011261007557610f9161276d565b610f99612783565b606435916001600160401b038311610075573660238401121561007557610fcd61005b93369060248160040135910161287b565b9160443591612d54565b346100755760203660031901126100755760043580151580910361007557610ffd612a16565b60ff801960105416911617601055600080f35b3461007557602036600319011261007557601754600090600435825b82811061106357602061105b611041866134f5565b50600101546011549060801c6001600160401b0316612f53565b604051908152f35b600161106e826134f5565b50818060401b03918291015460401c168314611094575b5061108f906134e6565b61102c565b8116935061108f611085565b34610075576040366003190112610075576110b961276d565b6110c1612936565b6001600160a01b0390911690811561112c5733600052600560205260406000208260005260205260406000209015159060ff1981541660ff83161790556040519081527f17307eab39ab6107e8899845ad3d59bd9653f200f220920489ca2b5937696c3160203392a3005b604051630b61174360e31b815260048101839052602490fd5b3461007557602036600319011261007557602060043560405190600160f91b908060fd1b9060031c17188152f35b34610075576000366003190112610075576040516000906001805461119781612a7b565b8084529082811690811561121057506001146111d2575b610c95836111be8187038261283d565b604051918291602083526020830190612748565b92508060005260209283600020916000925b8284106111fd575050508101909101906111be816111ae565b80548585018701529285019281016111e4565b610c9595506111be93506020915091849260ff191682840152151560051b82010193506111ae565b3461007557600036600319011261007557600d546040516001600160a01b039091168152602090f35b6060366003190112610075576001600160401b036004358181116100755761128d9036906004016128b2565b90602435908111610075576112a69036906004016128b2565b336000526020906012825260018060801b0392836002604060002001541615600014611482576112d53461309b565b600f5493336000526012845261130963ffffffff95606461130288600160406000200154891c1683612f53565b0490612f7f565b3410611475576114379261141061140960195492848416958561132b886131ae565b166001600160801b031995861617601955600d546113539088906001600160a01b03166131c6565b6113ea60266040519361136585612822565b60078552666d65737361676560c81b8c86015261138134613b36565b908c6113db604051968461139e899651809286808a019101612725565b850163032ba34160e51b848201526113bf8251809386602485019101612725565b01916101d160f51b602484015283519384918785019101612725565b0103600681018452018261283d565b6113f261307e565b906040519261140084612807565b6000845261386c565b8094613392565b6019549082821692611421846131ae565b1691161760195561143281336131c6565b613392565b336000526012815260016040600020019182549161146063ffffffff60201b9284831c16612fa0565b63ffffffff60201b1990931692901b16179055005b505050505061005b6136f1565b61148b34612fb5565b6112d5565b6060366003190112610075576004356001600160401b038111610075576114bb9036906004016128b2565b60249081356001600160401b038111610075576114dc9036906004016128b2565b50604435906001600160401b038216820361007557336000908152601260205260409020600201546001600160801b03166119405761151a3461309b565b6017546001600160401b03919060005b8181106118fa575b50506001600160401b038281169081146100755761156c6001611554856134f5565b5001546011549060801c6001600160401b0316612f53565b34108015906118e6575b1561147557601954906116429086906001600160801b036115988186166131ae565b166001600160801b0319851617601955600d546115c8906001600160801b038616906001600160a01b03166131c6565b6115da6115d434613b36565b91613592565b60405195826115f3889451809260208088019101612725565b8301600160fd1b6020820152611613825180936020602185019101612725565b016201d11960ed1b60218201526116338251809360208785019101612725565b0103600481018552018361283d565b61164a61307e565b90611654846134f5565b50549460005b60208110806118a5575b1561167757611672906134e6565b61165a565b93949561168385613560565b9460005b81811061185d57505050916116ca84926116bb6117879796846116b46117819860018060401b0316613592565b988961386c565b906001600160801b0316613392565b6019546001600160801b038082169591906116e4876131ae565b6001600160801b031990921691161760195561170085336131c6565b604061170b886134f5565b5060018080841b0391015416141560001461185557611740604061172e896134f5565b5060018080841b039101541618613592565b61177b60256040518093642830b9b99d60d91b602083015261176b8151809260208686019101612725565b810103600581018452018261283d565b9061386c565b90613392565b600d546001600160a01b0316330361179b57005b6117c460016117a9836134f5565b50016117be63ffffffff825460c01c16612fa0565b90613514565b6117cd816134f5565b5060019081015460801c6001600160401b03169061ffff906117ee846134f5565b50015460e01c16029060018060401b038216918203611840576118126001916134f5565b5001805460801c6001600160401b0390811660649093048116929092019182116118405761005b9250613537565b82634e487b7160e01b60005260116004526000fd5b61177b61307e565b60208110156118905761188b90600160f91b8460fd1b8560031c1718811a611885828a613b18565b536134e6565b611687565b89634e487b7160e01b60005260326004526000fd5b156118d157600387901c60fd88901b17600160f91b18811a60f81b6001600160f81b0319161515611664565b87634e487b7160e01b60005260326004526000fd5b50600d546001600160a01b03163314611576565b611903816134f5565b506001015460401c6001600160401b039081169086161461192c57611927906134e6565b61152a565b6001600160401b0316925085905080611532565b61194934612fb5565b61151a565b3461007557600036600319011261007557611967612a16565b600080808060018060a01b03600d54164790828215611995575bf11561198957005b6040513d6000823e3d90fd5b506108fc611981565b34610075576000366003190112610075576019546040516001600160801b039091168152602090f35b34610075576000366003190112610075576119e0612a16565b600d80546001600160a01b031981169091556000906001600160a01b0316600080516020613d6a8339815191528280a3005b3461007557602036600319011261007557602061105b611a3061276d565b612a42565b34610075576020366003190112610075576020611a53600435612e9c565b6040516001600160a01b039091168152f35b3461007557600036600319011261007557611a7e612a16565b600e54611a8a816129ff565b90611a98604051928361283d565b808252601f19611aa7826129ff565b0160005b818110611c8357505060005b818110611b9b5760408051602080825285518183018190528187019383019160005b828110611ae65784840385f35b909192826101806001928851848060801b038082511683528085830151168584015263ffffffff80604084015116604085015260609081840151169084015261ffff60808181850151169085015260a08181850151169085015260c08181850151169085015260e08301511660e084015261010060ff81840151169084015261012090818301511690830152610140808201511515908301526101608091015115159082015201960191019492919094611ad9565b611ba481612f08565b60018060a01b0391549060031b1c1660005260209060128252604060002060405190611bcf826127eb565b805460018060801b03948582168452608091821c8185015260019586840154809263ffffffff8083166040890152826060921c168188015261ffff918291828260401c16878a0152828260501c1660a08a01521c1660c08701528260701c1660e0860152600260ff94858094861c16610100880152015492839182166101208701521c16151561014084015260881c161515610160820152611c718286612f8c565b52611c7c8185612f8c565b5001611ab7565b602090604051611c92816127eb565b6000815282600081830152600060408301526000606083015260006080830152600060a0830152600060c0830152600060e08301526000610100830152600061012083015260006101408301526000610160830152828701015201611aab565b3461007557600036600319011261007557611d0b612a16565b601754611d17816129ff565b611d24604051918261283d565b81815260176000908152600080516020613daa833981519152929060208084015b838310611d5a5760405180610c958782612945565b600282600192604051611d6c816127d0565b89548152848a015460ff868060401b039182811686850152828160401c16604085015260809281841c16606085015260c09263ffffffff82851c169085015261ffff8160e01c1660a085015260f01c1690820152815201960192019194611d45565b3461007557602036600319011261007557600435600854811015611e0557611df7602091612ed7565b90546040519160031b1c8152f35b6044906040519063295f44f760e21b8252600060048301526024820152fd5b3461007557600036600319011261007557611e3d612a16565b601754600060175580611e4c57005b6001600160ff1b0381168103610993576017600052600190811b600080516020613daa833981519152908101905b818110611e8357005b600080825583820155600201611e7a565b3461007557600036600319011261007557611ead612a16565b6016546001600160801b038116908115611f3d5760008080848194611edd8260018060801b03199260801c612f66565b60801b16601655600d546001600160a01b03165af1611efa612f23565b5015611f0257005b60405162461bcd60e51b8152602060048201526013602482015272119959481d1c985b9cd9995c8819985a5b1959606a1b6044820152606490fd5b60405162461bcd60e51b81526020600482015260136024820152724e6f206665657320746f20776974686472617760681b6044820152606490fd5b346100755761005b611f89366128d0565b9060405192611f9784612807565b60008452612d54565b3461007557600036600319011261007557611fb9612a16565b610c956111be47613b36565b3461007557606036600319011261007557611fde612936565b611fe6612a16565b600435600f5560ff8019601054169115151617601055604435601155600080f35b3461007557600036600319011261007557602061105b600f543360005260128352606461130263ffffffff600160406000200154861c1683612f53565b346100755760403660031901126100755761205d61276d565b6024359061206a81612a42565b82101561209d5760018060a01b031660005260066020526040600020906000526020526020604060002054604051908152f35b6120b960405192839263295f44f760e21b84526004840161291b565b0390fd5b34610075576120cb36612905565b6000918252600c6020526040909120546001600160a01b03808216929160a01c90831561211c575b506127109161210b916001600160601b031690612f53565b0490610c956040519283928361291b565b600b54908116935060a01c90506127106120f3565b346100755761005b612142366128d0565b91612ab5565b3461007557600036600319011261007557600061010060405161216a816127b4565b8281528260208201528260408201528260608201528260808201528260a08201528260c08201528260e082015201526121a1612a16565b6101206040516121b0816127b4565b6013549060018060401b038216815260018060801b038260401c1660208201528160c01c604082015263ffffffff60145460018060801b038116606084015260801c16608082015260ff60155460018060801b03811660a084015260801c1660c082015260165460018060801b03811660e083015260801c6101008201526040519160018060401b0316825260018060801b03602082015116602083015260018060401b03604082015116604083015260018060801b03606082015116606083015263ffffffff608082015116608083015260018060801b0360a08201511660a083015260ff60c08201511660c083015260018060801b0360e08201511660e083015261010060018060801b0391015116610100820152f35b34610075576000366003190112610075576000604080516122e981612799565b82815282602082015201526122fc612a16565b606060405161230a81612799565b600f549081815260ff60105416602082019015158152604060115492019182526040519283525115156020830152516040820152f35b34610075576000366003190112610075576020600854604051908152f35b346100755760a03660031901126100755761237761276d565b6001600160401b0390602435828111610075576123989036906004016128b2565b91604435818111610075576123b19036906004016128b2565b926064359182116100755761005b936123d16117819336906004016128b2565b506019546001600160801b03808216956113ea9287926123f0846131ae565b6001600160801b03199092169116176019556131c6565b346100755760403660031901126100755761242061276d565b60243561242c81612e9c565b331515806124db575b806124ae575b612496576001600160a01b039283169282918491167f8c5be1e5ebec7d5bd14f71427d1e84f3dd0314c0f7b2291e5b200ac8c7c3b925600080a4600090815260046020526040902080546001600160a01b0319169091179055005b60405163a9fbf51f60e01b8152336004820152602490fd5b5060018060a01b038116600052600560205260406000203360005260205260ff604060002054161561243b565b506001600160a01b038116331415612435565b346100755760203660031901126100755760043561250b81612e9c565b506000526004602052602060018060a01b0360406000205416604051908152f35b346100755760003660031901126100755760405160009060005461254f81612a7b565b808352600191808316908115611210575060011461257757610c95836111be8187038261283d565b600080805260209450917f290decd9548b62a8d60345a988386fc84ba6bc95484008f6362f93160ef3e5635b8284106125bc575050508101909101906111be816111ae565b80548585018701529285019281016125a3565b34610075576020366003190112610075576004356001600160401b0381811691829003610075576125fe612a16565b60005b60175481101561005b5780612618612631926134f5565b50848460018093015460401c1614612636575b506134e6565b612601565b61263f826134f5565b5001805460ff60f01b1916600960f01b1790558461262b565b34610075576020366003190112610075576004359063ffffffff60e01b82168092036100755760209163152a902d60e11b811490811561269a575b5015158152f35b632483248360e11b8114915081156126b4575b5083612693565b63780e9d6360e01b8114915081156126ce575b50836126ad565b6380ac58cd60e01b811491508115612700575b81156126ef575b50836126c7565b6301ffc9a760e01b149050836126e8565b635b5e139f60e01b811491506126e1565b35906001600160401b038216820361007557565b60005b8381106127385750506000910152565b8181015183820152602001612728565b9060209161276181518092818552858086019101612725565b601f01601f1916010190565b600435906001600160a01b038216820361007557565b602435906001600160a01b038216820361007557565b606081019081106001600160401b038211176107cb57604052565b61012081019081106001600160401b038211176107cb57604052565b60e081019081106001600160401b038211176107cb57604052565b61018081019081106001600160401b038211176107cb57604052565b602081019081106001600160401b038211176107cb57604052565b604081019081106001600160401b038211176107cb57604052565b601f909101601f19168101906001600160401b038211908210176107cb57604052565b6001600160401b0381116107cb57601f01601f191660200190565b92919261288782612860565b91612895604051938461283d565b829481845281830111610075578281602093846000960137010152565b9080601f83011215610075578160206128cd9335910161287b565b90565b6060906003190112610075576001600160a01b0390600435828116810361007557916024359081168103610075579060443590565b6040906003190112610075576004359060243590565b6001600160a01b039091168152602081019190915260400190565b60243590811515820361007557565b60208082019080835283518092528060408094019401926000905b83821061296f57505050505090565b845180518752808401516001600160401b0390811688860152818301518116888401526060808301519091169088015260808082015163ffffffff169088015260a08082015161ffff169088015260c09081015160ff169087015260e09095019493820193600190910190612960565b346100755760203660031901126100755760206040516040600435188152f35b6001600160401b0381116107cb5760051b60200190565b600d546001600160a01b03163303612a2a57565b60405163118cdaa760e01b8152336004820152602490fd5b6001600160a01b03168015612a6257600052600360205260406000205490565b6040516322718ad960e21b815260006004820152602490fd5b90600182811c92168015612aab575b6020831014612a9557565b634e487b7160e01b600052602260045260246000fd5b91607f1691612a8a565b6001600160a01b0382811693918415612d3b57600094838652602095600287526040968488832054169633151580612caf575b5087158015612c8f575b84845260038352898420805460010190558784526002835289842080546001600160a01b0319168617905587858a600080516020613d8a8339815191528780a415612c235760085487845260098352898420819055600160401b811015612c0f57612b7e612b678260018b9401600855612ed7565b819391549060031b91821b91600019901b19161790565b90555b838803612bbd575b505050501692838303612b9c5750505050565b6064945051926364283d7b60e01b8452600484015260248301526044820152fd5b612bc690612a42565b600019810193908411612bfb5782916007918a9452600681528383208584528152878484205587835252205538808080612b89565b634e487b7160e01b83526011600452602483fd5b634e487b7160e01b84526041600452602484fd5b878414612b8157612c3388612a42565b878452600783528984205490898552600684528a852091818103612c6d575b5088855260078452848b812055845282528289812055612b81565b8186528285528b862054818752808d8820558652600785528b86205538612c52565b612c9888612e7e565b888452600383528984208054600019019055612af2565b80612cfa575b15612cc05738612ae8565b888789612cdd576024915190637e27328960e01b82526004820152fd5b905163177e802f60e01b81529081906120b990336004840161291b565b503388148015612d1f575b80612cb557508683526004825233868a8520541614612cb5565b5087835260058252888320338452825260ff8984205416612d05565b604051633250574960e11b815260006004820152602490fd5b9190612d61828285612ab5565b803b612d6e575b50505050565b612db060018060a01b0380921694604051938493630a85bd0160e11b968786523360048701521660248501526044840152608060648401526084830190612748565b03906020816000938185885af190829082612e2f575b5050612dfe5782612dd5612f23565b8051919082612df757604051633250574960e11b815260048101839052602490fd5b9050602001fd5b6001600160e01b03191603612e17575038808080612d68565b60249060405190633250574960e11b82526004820152fd5b909192506020813d8211612e76575b81612e4b6020938361283d565b81010312612e725751906001600160e01b031982168203612e6f5750903880612dc6565b80fd5b5080fd5b3d9150612e3e565b600090815260046020526040902080546001600160a01b0319169055565b6000818152600260205260409020546001600160a01b0316908115612ebf575090565b60249060405190637e27328960e01b82526004820152fd5b600854811015612ef257600860005260206000200190600090565b634e487b7160e01b600052603260045260246000fd5b600e54811015612ef257600e60005260206000200190600090565b3d15612f4e573d90612f3482612860565b91612f42604051938461283d565b82523d6000602084013e565b606090565b8181029291811591840414171561099357565b6001600160801b03918216908216019190821161099357565b9190820180921161099357565b8051821015612ef25760209160051b010190565b90600163ffffffff8093160191821161099357565b33600090815260126020526040902080546001600160801b0319166001600160801b03928316178155600101805463ffffffff612ff3818316612fa0565b63ffffffff199092169116179055601354906001600160401b03808316600101818111610993571690600160401b600160c01b039061304690348116906001600160401b03198616851760401c16612f66565b60401b169160018060c01b0319161717601355565b6040519061306882612822565b600782526677656c636f6d6560c81b6020830152565b6040519061308b82612822565b60018252600160fd1b6020830152565b336000908152601260205260408120600180820180546001600160401b031916909117905580546001600160801b03199081166001600160801b0394851617909155600e5491939291600160401b81101561319a579361178191613109866001613198979801600e55612f08565b81549060031b9033821b9160018060a01b03901b191617905583600e5416338352601260205260026040842001908282541617905561314661305b565b9061314f61307e565b9061315861305b565b50601954908682169661316a886131ae565b1691161760195561317b85336131c6565b61318361307e565b916040519361319185612807565b845261386c565b565b634e487b7160e01b85526041600452602485fd5b6001600160801b039081169081146109935760010190565b6001600160a01b03908082168015612d3b57600093808552602090600282526040948587205416938415948486159687613372575b818a5260038652888a2080546001019055848a5260028652888a2080546001600160a01b03191683179055848284600080516020613d8a8339815191528d80a415613304575060085483895260098552878920819055600160401b8110156132f0579083613273612b678460018a9601600855612ed7565b90555b0361329f575b50505050613288575050565b6024925051906339e3563760e11b82526004820152fd5b6132a890612a42565b6000198101939084116132dc578652600682528486208387528252848620819055855260079052828420553880808061327c565b634e487b7160e01b87526011600452602487fd5b634e487b7160e01b89526041600452602489fd5b908082146132765761331581612a42565b848a5260078652888a205490828b5260068752898b209181810361334f575b50858b52600787528a8a8120558a5285528888812055613276565b818c528288528a8c2054818d528b8d208190558c52600788528a8c205538613334565b61337b85612e7e565b828a5260038652888a2080546000190190556131fb565b6000818152600a60209081526040822084519495949193929091906001600160401b0382116134d2576133c58354612a7b565b601f811161348f575b508490601f831160011461341d5790600080516020613dca833981519152969783613412575b50508160011b916000199060031b1c19161790555b604051908152a1565b0151905038806133f4565b9196601f198816848452868420935b8181106134785750916001939189600080516020613dca833981519152999a941061345f575b505050811b019055613409565b015160001960f88460031b161c19169055388080613452565b92938760018192878601518155019501930161342c565b838252858220601f840160051c8101918785106134c8575b601f0160051c01905b8181106134bd57506133ce565b8281556001016134b0565b90915081906134a7565b634e487b7160e01b81526041600452602490fd5b60001981146109935760010190565b601754811015612ef257601760005260206000209060011b0190600090565b805463ffffffff60c01b191660c09290921b63ffffffff60c01b16919091179055565b8054600160801b600160c01b03191660809290921b600160801b600160c01b0316919091179055565b9061356a82612860565b613577604051918261283d565b8281528092613588601f1991612860565b0190602036910137565b6000908072184f03e93ff9f4daa797ed6e38ed64bf6a1f0160401b808210156136c1575b506904ee2d6d415b85acef8160201b808310156136b2575b50662386f26fc10000808310156136a3575b506305f5e10080831015613694575b5061271080831015613685575b506064821015613675575b600a8092101561366b575b600190816021613623828701613560565b95860101905b613635575b5050505090565b600019019083906f181899199a1a9b1b9c1cb0b131b232b360811b8282061a83530491821561366657919082613629565b61362e565b9160010191613612565b9190606460029104910191613607565b600491939204910191386135fc565b600891939204910191386135ef565b601091939204910191386135e0565b602091939204910191386135ce565b6040935081049150386135b6565b604051906136dc82612822565b60068252657468616e6b7360d01b6020830152565b6131986136fc6136cf565b61178161373361372e600f54336000526012602052606461130263ffffffff60016040600020015460201c1683612f53565b613b36565b916137bb60616040518095774174656d7074206d657373616765206d696e696d756d203d60401b6020830152613773815180926020603886019101612725565b81017f6574682e2045766572797468696e672077696c6c206265207573656420666f726038820152681031b430b934ba3c9760b91b605882015203604181018652018461283d565b6137c36136cf565b506019546001600160801b038082169491906137de866131ae565b6001600160801b03199092169116176019556113ea84336131c6565b9190820391821161099357565b805460ff60f01b191660f09290921b60ff60f01b16919091179055565b805461ffff60e01b191660e09290921b61ffff60e01b16919091179055565b8054600160401b600160801b03191660409290921b600160401b600160801b0316919091179055565b6139d6603d92613975605c6128cd96613a1098604051948592602098607b60f81b8a86015267113730b6b2911d1160c11b60218601526138b5815180928c602989019101612725565b84019161088b60f21b928360298201526e113232b9b1b934b83a34b7b7111d1160891b602b8201526138f0825180938d603a85019101612725565b0182603a820152691134b6b0b3b2911d101160b11b603c82015261391d825180938c604685019101612725565b01906046820152711132bc3a32b93730b62fb634b735911d101160711b6048820152613952825180938a605a85019101612725565b01601160f91b605a820152607d60f81b605b82015203603c81018452018261283d565b6040519061398282612799565b604082527f4142434445464748494a4b4c4d4e4f505152535455565758595a616263646566848301527f6768696a6b6c6d6e6f707172737475767778797a303132333435363738392b2f6040830152613a20565b60405194827f646174613a6170706c69636174696f6e2f6a736f6e3b6261736536342c000000879485015282519283918686019101612725565b810103601d81018452018261283d565b805115613b03578051600291828201809211610993576003918290046001600160fe1b038116810361099357613a59908495941b613560565b936020850193829183518401906020820192835194600085525b838110613ab2575050505052510680600114613a9f57600214613a94575090565b603d90600019015390565b50603d9081600019820153600119015390565b87600491999293949901918251600190603f9082828260121c16880101518453828282600c1c16880101518385015382828260061c1688010151888501531685010151898201530197929190613a73565b5050604051613b1181612807565b6000815290565b908151811015612ef2570160200190565b8015610993576000190190565b613b4c670de0b6b3a76400008083069204613ccb565b908015613cc75790604051613b6081612822565b60128152602092833681840137601290815b613c7c57505080515b80151580613c38575b15613b9757613b9290613b29565b613b7b565b929091928015613c3257613baa81613560565b92600090815b838110613c085750505050613bf9926128cd926021926040519583613bde8895518092858089019101612725565b840191601760f91b8184015283519384918785019101612725565b0103600181018452018261283d565b613c2d906001600160f81b0319613c1f8285613b18565b5116841a6118858289613b18565b613bb0565b50505090565b506000198101818111613c6757600360fc1b906001600160f81b031990613c5f9085613b18565b511614613b84565b60246000634e487b7160e01b81526011600452fd5b600a6030918181068301809311613c67576000198401848111613c6757613cc09360f81b6001600160f81b03191660001a90613cb89087613b18565b530491613b29565b9081613b72565b5090565b8015613d4b5780600081805b613d335750613ce581613560565b925b613cf057505090565b6000198101908111610993578091600a91603083830681018091116109935760f81b6001600160f81b03191660001a90613d2a9086613b18565b53049081613ce7565b9150613d40600a916134e6565b910480839291613cd7565b50604051613d5881612822565b60018152600360fc1b60208201529056fe8be0079c531659141344cd1fd0a4f28419497f9722a3daafe3b4186f6b6457e0ddf252ad1be2c89b69c2b068fc378daa952ba7f163c4a11628f55a4df523b3efc624b66cc0138b8fabc209247f72d758e1cf3343756d543badbf24212bed8c15f8e1a15aba9398e019f0b49df1a4fde98ee17ae345cb5f6b5e2c27f5033e8ce7a264697066735822122068a85ddfa4fce0c29a74e8a4a0a9ae9d07d01d17ab798d076b6eac602d91d88564736f6c63430008140033",
  "linkReferences": {},
  "deployedLinkReferences": {}
}